DBCC execution completed. If DBCC printed error messages, contact your system administrator.

PAGE: (1:7)


BUFFER:


BUF @0x00000278ECABC9C0

bpage = 0x00000278BCBC0000          bhash = 0x0000000000000000          bpageno = (1:7)
bdbid = 7                           breferences = 1                     bcputicks = 284
bsampleCount = 1                    bUse1 = 46806                       bstat = 0x9
blog = 0x215a215a                   bnext = 0x0000000000000000          bDirtyContext = 0x0000000000000000
bstat2 = 0x0

PAGE HEADER:


Page @0x00000278BCBC0000

m_pageId = (1:7)                    m_headerVersion = 1                 m_type = 17
m_typeFlagBits = 0x0                m_level = 0                         m_flagBits = 0x0
m_objId (AllocUnitId.idObj) = 99    m_indexId (AllocUnitId.idInd) = 0   Metadata: AllocUnitId = 6488064
Metadata: PartitionId = 0           Metadata: IndexId = 0               Metadata: ObjectId = 99
m_prevPage = (0:0)                  m_nextPage = (0:0)                  pminlen = 90
m_slotCnt = 2                       m_freeCnt = 6                       m_freeData = 8182
m_reservedCnt = 0                   m_lsn = (0:0:1)                     m_xactReserved = 0
m_xdesId = (0:0)                    m_ghostRecCnt = 0                   m_tornBits = 0
DB Frag ID = 1

Allocation Status

GAM (1:2) = ALLOCATED               SGAM (1:3) = NOT ALLOCATED          PFS (1:1) = 0x44 ALLOCATED 100_PCT_FULL
DIFF (1:6) = CHANGED                ML (1:7) = NOT MIN_LOGGED

DATA:


Memory Dump @0x000000D9AE8FA000

000000D9AE8FA000:   01110000 00000000 00000000 00005a00 00000000  ..............Z.....
000000D9AE8FA014:   00000200 63000000 0600f61f 07000000 01000000  ....c.....ö.........
000000D9AE8FA028:   00000000 00000000 01000000 00000000 00000000  ....................
000000D9AE8FA03C:   00000000 00000000 00000000 00000000 00000000  ....................
000000D9AE8FA050:   00000000 00000000 00000000 00000000 00005e00  ..................^.
000000D9AE8FA064:   00000000 00000000 00000000 00000000 00000000  ....................
000000D9AE8FA078:   00000000 00000000 00000000 00000000 00000000  ....................
000000D9AE8FA08C:   00000000 00000000 00000000 00000000 00000000  ....................
000000D9AE8FA0A0:   00000000 00000000 00000000 00000000 00000000  ....................
000000D9AE8FA0B4:   00000000 00000000 00000000 381f0000 00000000  ............8.......
000000D9AE8FA0C8:   00000000 00000000 00000000 00000000 00000000  ....................
000000D9AE8FA0DC:   00000000 00000000 00000000 00000000 00000000  ....................
000000D9AE8FA0F0:   00000000 00000000 00000000 00000000 00000000  ....................
000000D9AE8FA104:   00000000 00000000 00000000 00000000 00000000  ....................
000000D9AE8FA118:   00000000 00000000 00000000 00000000 00000000  ....................
000000D9AE8FA12C:   00000000 00000000 00000000 00000000 00000000  ....................
000000D9AE8FA140:   00000000 00000000 00000000 00000000 00000000  ....................
000000D9AE8FA154:   00000000 00000000 00000000 00000000 00000000  ....................
000000D9AE8FA168:   00000000 00000000 00000000 00000000 00000000  ....................
000000D9AE8FA17C:   00000000 00000000 00000000 00000000 00000000  ....................
000000D9AE8FA190:   00000000 00000000 00000000 00000000 00000000  ....................
000000D9AE8FA1A4:   00000000 00000000 00000000 00000000 00000000  ....................
000000D9AE8FA1B8:   00000000 00000000 00000000 00000000 00000000  ....................
000000D9AE8FA1CC:   00000000 00000000 00000000 00000000 00000000  ....................
000000D9AE8FA1E0:   00000000 00000000 00000000 00000000 00000000  ....................
000000D9AE8FA1F4:   00000000 00000000 00000000 00000000 00000000  ....................
000000D9AE8FA208:   00000000 00000000 00000000 00000000 00000000  ....................
000000D9AE8FA21C:   00000000 00000000 00000000 00000000 00000000  ....................
000000D9AE8FA230:   00000000 00000000 00000000 00000000 00000000  ....................
000000D9AE8FA244:   00000000 00000000 00000000 00000000 00000000  ....................
000000D9AE8FA258:   00000000 00000000 00000000 00000000 00000000  ....................
000000D9AE8FA26C:   00000000 00000000 00000000 00000000 00000000  ....................
000000D9AE8FA280:   00000000 00000000 00000000 00000000 00000000  ....................
000000D9AE8FA294:   00000000 00000000 00000000 00000000 00000000  ....................
000000D9AE8FA2A8:   00000000 00000000 00000000 00000000 00000000  ....................
000000D9AE8FA2BC:   00000000 00000000 00000000 00000000 00000000  ....................
000000D9AE8FA2D0:   00000000 00000000 00000000 00000000 00000000  ....................
000000D9AE8FA2E4:   00000000 00000000 00000000 00000000 00000000  ....................
000000D9AE8FA2F8:   00000000 00000000 00000000 00000000 00000000  ....................
000000D9AE8FA30C:   00000000 00000000 00000000 00000000 00000000  ....................
000000D9AE8FA320:   00000000 00000000 00000000 00000000 00000000  ....................
000000D9AE8FA334:   00000000 00000000 00000000 00000000 00000000  ....................
000000D9AE8FA348:   00000000 00000000 00000000 00000000 00000000  ....................
000000D9AE8FA35C:   00000000 00000000 00000000 00000000 00000000  ....................
000000D9AE8FA370:   00000000 00000000 00000000 00000000 00000000  ....................
000000D9AE8FA384:   00000000 00000000 00000000 00000000 00000000  ....................
000000D9AE8FA398:   00000000 00000000 00000000 00000000 00000000  ....................
000000D9AE8FA3AC:   00000000 00000000 00000000 00000000 00000000  ....................
000000D9AE8FA3C0:   00000000 00000000 00000000 00000000 00000000  ....................
000000D9AE8FA3D4:   00000000 00000000 00000000 00000000 00000000  ....................
000000D9AE8FA3E8:   00000000 00000000 00000000 00000000 00000000  ....................
000000D9AE8FA3FC:   00000000 00000000 00000000 00000000 00000000  ....................
000000D9AE8FA410:   00000000 00000000 00000000 00000000 00000000  ....................
000000D9AE8FA424:   00000000 00000000 00000000 00000000 00000000  ....................
000000D9AE8FA438:   00000000 00000000 00000000 00000000 00000000  ....................
000000D9AE8FA44C:   00000000 00000000 00000000 00000000 00000000  ....................
000000D9AE8FA460:   00000000 00000000 00000000 00000000 00000000  ....................
000000D9AE8FA474:   00000000 00000000 00000000 00000000 00000000  ....................
000000D9AE8FA488:   00000000 00000000 00000000 00000000 00000000  ....................
000000D9AE8FA49C:   00000000 00000000 00000000 00000000 00000000  ....................
000000D9AE8FA4B0:   00000000 00000000 00000000 00000000 00000000  ....................
000000D9AE8FA4C4:   00000000 00000000 00000000 00000000 00000000  ....................
000000D9AE8FA4D8:   00000000 00000000 00000000 00000000 00000000  ....................
000000D9AE8FA4EC:   00000000 00000000 00000000 00000000 00000000  ....................
000000D9AE8FA500:   00000000 00000000 00000000 00000000 00000000  ....................
000000D9AE8FA514:   00000000 00000000 00000000 00000000 00000000  ....................
000000D9AE8FA528:   00000000 00000000 00000000 00000000 00000000  ....................
000000D9AE8FA53C:   00000000 00000000 00000000 00000000 00000000  ....................
000000D9AE8FA550:   00000000 00000000 00000000 00000000 00000000  ....................
000000D9AE8FA564:   00000000 00000000 00000000 00000000 00000000  ....................
000000D9AE8FA578:   00000000 00000000 00000000 00000000 00000000  ....................
000000D9AE8FA58C:   00000000 00000000 00000000 00000000 00000000  ....................
000000D9AE8FA5A0:   00000000 00000000 00000000 00000000 00000000  ....................
000000D9AE8FA5B4:   00000000 00000000 00000000 00000000 00000000  ....................
000000D9AE8FA5C8:   00000000 00000000 00000000 00000000 00000000  ....................
000000D9AE8FA5DC:   00000000 00000000 00000000 00000000 00000000  ....................
000000D9AE8FA5F0:   00000000 00000000 00000000 00000000 00000000  ....................
000000D9AE8FA604:   00000000 00000000 00000000 00000000 00000000  ....................
000000D9AE8FA618:   00000000 00000000 00000000 00000000 00000000  ....................
000000D9AE8FA62C:   00000000 00000000 00000000 00000000 00000000  ....................
000000D9AE8FA640:   00000000 00000000 00000000 00000000 00000000  ....................
000000D9AE8FA654:   00000000 00000000 00000000 00000000 00000000  ....................
000000D9AE8FA668:   00000000 00000000 00000000 00000000 00000000  ....................
000000D9AE8FA67C:   00000000 00000000 00000000 00000000 00000000  ....................
000000D9AE8FA690:   00000000 00000000 00000000 00000000 00000000  ....................
000000D9AE8FA6A4:   00000000 00000000 00000000 00000000 00000000  ....................
000000D9AE8FA6B8:   00000000 00000000 00000000 00000000 00000000  ....................
000000D9AE8FA6CC:   00000000 00000000 00000000 00000000 00000000  ....................
000000D9AE8FA6E0:   00000000 00000000 00000000 00000000 00000000  ....................
000000D9AE8FA6F4:   00000000 00000000 00000000 00000000 00000000  ....................
000000D9AE8FA708:   00000000 00000000 00000000 00000000 00000000  ....................
000000D9AE8FA71C:   00000000 00000000 00000000 00000000 00000000  ....................
000000D9AE8FA730:   00000000 00000000 00000000 00000000 00000000  ....................
000000D9AE8FA744:   00000000 00000000 00000000 00000000 00000000  ....................
000000D9AE8FA758:   00000000 00000000 00000000 00000000 00000000  ....................
000000D9AE8FA76C:   00000000 00000000 00000000 00000000 00000000  ....................
000000D9AE8FA780:   00000000 00000000 00000000 00000000 00000000  ....................
000000D9AE8FA794:   00000000 00000000 00000000 00000000 00000000  ....................
000000D9AE8FA7A8:   00000000 00000000 00000000 00000000 00000000  ....................
000000D9AE8FA7BC:   00000000 00000000 00000000 00000000 00000000  ....................
000000D9AE8FA7D0:   00000000 00000000 00000000 00000000 00000000  ....................
000000D9AE8FA7E4:   00000000 00000000 00000000 00000000 00000000  ....................
000000D9AE8FA7F8:   00000000 00000000 00000000 00000000 00000000  ....................
000000D9AE8FA80C:   00000000 00000000 00000000 00000000 00000000  ....................
000000D9AE8FA820:   00000000 00000000 00000000 00000000 00000000  ....................
000000D9AE8FA834:   00000000 00000000 00000000 00000000 00000000  ....................
000000D9AE8FA848:   00000000 00000000 00000000 00000000 00000000  ....................
000000D9AE8FA85C:   00000000 00000000 00000000 00000000 00000000  ....................
000000D9AE8FA870:   00000000 00000000 00000000 00000000 00000000  ....................
000000D9AE8FA884:   00000000 00000000 00000000 00000000 00000000  ....................
000000D9AE8FA898:   00000000 00000000 00000000 00000000 00000000  ....................
000000D9AE8FA8AC:   00000000 00000000 00000000 00000000 00000000  ....................
000000D9AE8FA8C0:   00000000 00000000 00000000 00000000 00000000  ....................
000000D9AE8FA8D4:   00000000 00000000 00000000 00000000 00000000  ....................
000000D9AE8FA8E8:   00000000 00000000 00000000 00000000 00000000  ....................
000000D9AE8FA8FC:   00000000 00000000 00000000 00000000 00000000  ....................
000000D9AE8FA910:   00000000 00000000 00000000 00000000 00000000  ....................
000000D9AE8FA924:   00000000 00000000 00000000 00000000 00000000  ....................
000000D9AE8FA938:   00000000 00000000 00000000 00000000 00000000  ....................
000000D9AE8FA94C:   00000000 00000000 00000000 00000000 00000000  ....................
000000D9AE8FA960:   00000000 00000000 00000000 00000000 00000000  ....................
000000D9AE8FA974:   00000000 00000000 00000000 00000000 00000000  ....................
000000D9AE8FA988:   00000000 00000000 00000000 00000000 00000000  ....................
000000D9AE8FA99C:   00000000 00000000 00000000 00000000 00000000  ....................
000000D9AE8FA9B0:   00000000 00000000 00000000 00000000 00000000  ....................
000000D9AE8FA9C4:   00000000 00000000 00000000 00000000 00000000  ....................
000000D9AE8FA9D8:   00000000 00000000 00000000 00000000 00000000  ....................
000000D9AE8FA9EC:   00000000 00000000 00000000 00000000 00000000  ....................
000000D9AE8FAA00:   00000000 00000000 00000000 00000000 00000000  ....................
000000D9AE8FAA14:   00000000 00000000 00000000 00000000 00000000  ....................
000000D9AE8FAA28:   00000000 00000000 00000000 00000000 00000000  ....................
000000D9AE8FAA3C:   00000000 00000000 00000000 00000000 00000000  ....................
000000D9AE8FAA50:   00000000 00000000 00000000 00000000 00000000  ....................
000000D9AE8FAA64:   00000000 00000000 00000000 00000000 00000000  ....................
000000D9AE8FAA78:   00000000 00000000 00000000 00000000 00000000  ....................
000000D9AE8FAA8C:   00000000 00000000 00000000 00000000 00000000  ....................
000000D9AE8FAAA0:   00000000 00000000 00000000 00000000 00000000  ....................
000000D9AE8FAAB4:   00000000 00000000 00000000 00000000 00000000  ....................
000000D9AE8FAAC8:   00000000 00000000 00000000 00000000 00000000  ....................
000000D9AE8FAADC:   00000000 00000000 00000000 00000000 00000000  ....................
000000D9AE8FAAF0:   00000000 00000000 00000000 00000000 00000000  ....................
000000D9AE8FAB04:   00000000 00000000 00000000 00000000 00000000  ....................
000000D9AE8FAB18:   00000000 00000000 00000000 00000000 00000000  ....................
000000D9AE8FAB2C:   00000000 00000000 00000000 00000000 00000000  ....................
000000D9AE8FAB40:   00000000 00000000 00000000 00000000 00000000  ....................
000000D9AE8FAB54:   00000000 00000000 00000000 00000000 00000000  ....................
000000D9AE8FAB68:   00000000 00000000 00000000 00000000 00000000  ....................
000000D9AE8FAB7C:   00000000 00000000 00000000 00000000 00000000  ....................
000000D9AE8FAB90:   00000000 00000000 00000000 00000000 00000000  ....................
000000D9AE8FABA4:   00000000 00000000 00000000 00000000 00000000  ....................
000000D9AE8FABB8:   00000000 00000000 00000000 00000000 00000000  ....................
000000D9AE8FABCC:   00000000 00000000 00000000 00000000 00000000  ....................
000000D9AE8FABE0:   00000000 00000000 00000000 00000000 00000000  ....................
000000D9AE8FABF4:   00000000 00000000 00000000 00000000 00000000  ....................
000000D9AE8FAC08:   00000000 00000000 00000000 00000000 00000000  ....................
000000D9AE8FAC1C:   00000000 00000000 00000000 00000000 00000000  ....................
000000D9AE8FAC30:   00000000 00000000 00000000 00000000 00000000  ....................
000000D9AE8FAC44:   00000000 00000000 00000000 00000000 00000000  ....................
000000D9AE8FAC58:   00000000 00000000 00000000 00000000 00000000  ....................
000000D9AE8FAC6C:   00000000 00000000 00000000 00000000 00000000  ....................
000000D9AE8FAC80:   00000000 00000000 00000000 00000000 00000000  ....................
000000D9AE8FAC94:   00000000 00000000 00000000 00000000 00000000  ....................
000000D9AE8FACA8:   00000000 00000000 00000000 00000000 00000000  ....................
000000D9AE8FACBC:   00000000 00000000 00000000 00000000 00000000  ....................
000000D9AE8FACD0:   00000000 00000000 00000000 00000000 00000000  ....................
000000D9AE8FACE4:   00000000 00000000 00000000 00000000 00000000  ....................
000000D9AE8FACF8:   00000000 00000000 00000000 00000000 00000000  ....................
000000D9AE8FAD0C:   00000000 00000000 00000000 00000000 00000000  ....................
000000D9AE8FAD20:   00000000 00000000 00000000 00000000 00000000  ....................
000000D9AE8FAD34:   00000000 00000000 00000000 00000000 00000000  ....................
000000D9AE8FAD48:   00000000 00000000 00000000 00000000 00000000  ....................
000000D9AE8FAD5C:   00000000 00000000 00000000 00000000 00000000  ....................
000000D9AE8FAD70:   00000000 00000000 00000000 00000000 00000000  ....................
000000D9AE8FAD84:   00000000 00000000 00000000 00000000 00000000  ....................
000000D9AE8FAD98:   00000000 00000000 00000000 00000000 00000000  ....................
000000D9AE8FADAC:   00000000 00000000 00000000 00000000 00000000  ....................
000000D9AE8FADC0:   00000000 00000000 00000000 00000000 00000000  ....................
000000D9AE8FADD4:   00000000 00000000 00000000 00000000 00000000  ....................
000000D9AE8FADE8:   00000000 00000000 00000000 00000000 00000000  ....................
000000D9AE8FADFC:   00000000 00000000 00000000 00000000 00000000  ....................
000000D9AE8FAE10:   00000000 00000000 00000000 00000000 00000000  ....................
000000D9AE8FAE24:   00000000 00000000 00000000 00000000 00000000  ....................
000000D9AE8FAE38:   00000000 00000000 00000000 00000000 00000000  ....................
000000D9AE8FAE4C:   00000000 00000000 00000000 00000000 00000000  ....................
000000D9AE8FAE60:   00000000 00000000 00000000 00000000 00000000  ....................
000000D9AE8FAE74:   00000000 00000000 00000000 00000000 00000000  ....................
000000D9AE8FAE88:   00000000 00000000 00000000 00000000 00000000  ....................
000000D9AE8FAE9C:   00000000 00000000 00000000 00000000 00000000  ....................
000000D9AE8FAEB0:   00000000 00000000 00000000 00000000 00000000  ....................
000000D9AE8FAEC4:   00000000 00000000 00000000 00000000 00000000  ....................
000000D9AE8FAED8:   00000000 00000000 00000000 00000000 00000000  ....................
000000D9AE8FAEEC:   00000000 00000000 00000000 00000000 00000000  ....................
000000D9AE8FAF00:   00000000 00000000 00000000 00000000 00000000  ....................
000000D9AE8FAF14:   00000000 00000000 00000000 00000000 00000000  ....................
000000D9AE8FAF28:   00000000 00000000 00000000 00000000 00000000  ....................
000000D9AE8FAF3C:   00000000 00000000 00000000 00000000 00000000  ....................
000000D9AE8FAF50:   00000000 00000000 00000000 00000000 00000000  ....................
000000D9AE8FAF64:   00000000 00000000 00000000 00000000 00000000  ....................
000000D9AE8FAF78:   00000000 00000000 00000000 00000000 00000000  ....................
000000D9AE8FAF8C:   00000000 00000000 00000000 00000000 00000000  ....................
000000D9AE8FAFA0:   00000000 00000000 00000000 00000000 00000000  ....................
000000D9AE8FAFB4:   00000000 00000000 00000000 00000000 00000000  ....................
000000D9AE8FAFC8:   00000000 00000000 00000000 00000000 00000000  ....................
000000D9AE8FAFDC:   00000000 00000000 00000000 00000000 00000000  ....................
000000D9AE8FAFF0:   00000000 00000000 00000000 00000000 00000000  ....................
000000D9AE8FB004:   00000000 00000000 00000000 00000000 00000000  ....................
000000D9AE8FB018:   00000000 00000000 00000000 00000000 00000000  ....................
000000D9AE8FB02C:   00000000 00000000 00000000 00000000 00000000  ....................
000000D9AE8FB040:   00000000 00000000 00000000 00000000 00000000  ....................
000000D9AE8FB054:   00000000 00000000 00000000 00000000 00000000  ....................
000000D9AE8FB068:   00000000 00000000 00000000 00000000 00000000  ....................
000000D9AE8FB07C:   00000000 00000000 00000000 00000000 00000000  ....................
000000D9AE8FB090:   00000000 00000000 00000000 00000000 00000000  ....................
000000D9AE8FB0A4:   00000000 00000000 00000000 00000000 00000000  ....................
000000D9AE8FB0B8:   00000000 00000000 00000000 00000000 00000000  ....................
000000D9AE8FB0CC:   00000000 00000000 00000000 00000000 00000000  ....................
000000D9AE8FB0E0:   00000000 00000000 00000000 00000000 00000000  ....................
000000D9AE8FB0F4:   00000000 00000000 00000000 00000000 00000000  ....................
000000D9AE8FB108:   00000000 00000000 00000000 00000000 00000000  ....................
000000D9AE8FB11C:   00000000 00000000 00000000 00000000 00000000  ....................
000000D9AE8FB130:   00000000 00000000 00000000 00000000 00000000  ....................
000000D9AE8FB144:   00000000 00000000 00000000 00000000 00000000  ....................
000000D9AE8FB158:   00000000 00000000 00000000 00000000 00000000  ....................
000000D9AE8FB16C:   00000000 00000000 00000000 00000000 00000000  ....................
000000D9AE8FB180:   00000000 00000000 00000000 00000000 00000000  ....................
000000D9AE8FB194:   00000000 00000000 00000000 00000000 00000000  ....................
000000D9AE8FB1A8:   00000000 00000000 00000000 00000000 00000000  ....................
000000D9AE8FB1BC:   00000000 00000000 00000000 00000000 00000000  ....................
000000D9AE8FB1D0:   00000000 00000000 00000000 00000000 00000000  ....................
000000D9AE8FB1E4:   00000000 00000000 00000000 00000000 00000000  ....................
000000D9AE8FB1F8:   00000000 00000000 00000000 00000000 00000000  ....................
000000D9AE8FB20C:   00000000 00000000 00000000 00000000 00000000  ....................
000000D9AE8FB220:   00000000 00000000 00000000 00000000 00000000  ....................
000000D9AE8FB234:   00000000 00000000 00000000 00000000 00000000  ....................
000000D9AE8FB248:   00000000 00000000 00000000 00000000 00000000  ....................
000000D9AE8FB25C:   00000000 00000000 00000000 00000000 00000000  ....................
000000D9AE8FB270:   00000000 00000000 00000000 00000000 00000000  ....................
000000D9AE8FB284:   00000000 00000000 00000000 00000000 00000000  ....................
000000D9AE8FB298:   00000000 00000000 00000000 00000000 00000000  ....................
000000D9AE8FB2AC:   00000000 00000000 00000000 00000000 00000000  ....................
000000D9AE8FB2C0:   00000000 00000000 00000000 00000000 00000000  ....................
000000D9AE8FB2D4:   00000000 00000000 00000000 00000000 00000000  ....................
000000D9AE8FB2E8:   00000000 00000000 00000000 00000000 00000000  ....................
000000D9AE8FB2FC:   00000000 00000000 00000000 00000000 00000000  ....................
000000D9AE8FB310:   00000000 00000000 00000000 00000000 00000000  ....................
000000D9AE8FB324:   00000000 00000000 00000000 00000000 00000000  ....................
000000D9AE8FB338:   00000000 00000000 00000000 00000000 00000000  ....................
000000D9AE8FB34C:   00000000 00000000 00000000 00000000 00000000  ....................
000000D9AE8FB360:   00000000 00000000 00000000 00000000 00000000  ....................
000000D9AE8FB374:   00000000 00000000 00000000 00000000 00000000  ....................
000000D9AE8FB388:   00000000 00000000 00000000 00000000 00000000  ....................
000000D9AE8FB39C:   00000000 00000000 00000000 00000000 00000000  ....................
000000D9AE8FB3B0:   00000000 00000000 00000000 00000000 00000000  ....................
000000D9AE8FB3C4:   00000000 00000000 00000000 00000000 00000000  ....................
000000D9AE8FB3D8:   00000000 00000000 00000000 00000000 00000000  ....................
000000D9AE8FB3EC:   00000000 00000000 00000000 00000000 00000000  ....................
000000D9AE8FB400:   00000000 00000000 00000000 00000000 00000000  ....................
000000D9AE8FB414:   00000000 00000000 00000000 00000000 00000000  ....................
000000D9AE8FB428:   00000000 00000000 00000000 00000000 00000000  ....................
000000D9AE8FB43C:   00000000 00000000 00000000 00000000 00000000  ....................
000000D9AE8FB450:   00000000 00000000 00000000 00000000 00000000  ....................
000000D9AE8FB464:   00000000 00000000 00000000 00000000 00000000  ....................
000000D9AE8FB478:   00000000 00000000 00000000 00000000 00000000  ....................
000000D9AE8FB48C:   00000000 00000000 00000000 00000000 00000000  ....................
000000D9AE8FB4A0:   00000000 00000000 00000000 00000000 00000000  ....................
000000D9AE8FB4B4:   00000000 00000000 00000000 00000000 00000000  ....................
000000D9AE8FB4C8:   00000000 00000000 00000000 00000000 00000000  ....................
000000D9AE8FB4DC:   00000000 00000000 00000000 00000000 00000000  ....................
000000D9AE8FB4F0:   00000000 00000000 00000000 00000000 00000000  ....................
000000D9AE8FB504:   00000000 00000000 00000000 00000000 00000000  ....................
000000D9AE8FB518:   00000000 00000000 00000000 00000000 00000000  ....................
000000D9AE8FB52C:   00000000 00000000 00000000 00000000 00000000  ....................
000000D9AE8FB540:   00000000 00000000 00000000 00000000 00000000  ....................
000000D9AE8FB554:   00000000 00000000 00000000 00000000 00000000  ....................
000000D9AE8FB568:   00000000 00000000 00000000 00000000 00000000  ....................
000000D9AE8FB57C:   00000000 00000000 00000000 00000000 00000000  ....................
000000D9AE8FB590:   00000000 00000000 00000000 00000000 00000000  ....................
000000D9AE8FB5A4:   00000000 00000000 00000000 00000000 00000000  ....................
000000D9AE8FB5B8:   00000000 00000000 00000000 00000000 00000000  ....................
000000D9AE8FB5CC:   00000000 00000000 00000000 00000000 00000000  ....................
000000D9AE8FB5E0:   00000000 00000000 00000000 00000000 00000000  ....................
000000D9AE8FB5F4:   00000000 00000000 00000000 00000000 00000000  ....................
000000D9AE8FB608:   00000000 00000000 00000000 00000000 00000000  ....................
000000D9AE8FB61C:   00000000 00000000 00000000 00000000 00000000  ....................
000000D9AE8FB630:   00000000 00000000 00000000 00000000 00000000  ....................
000000D9AE8FB644:   00000000 00000000 00000000 00000000 00000000  ....................
000000D9AE8FB658:   00000000 00000000 00000000 00000000 00000000  ....................
000000D9AE8FB66C:   00000000 00000000 00000000 00000000 00000000  ....................
000000D9AE8FB680:   00000000 00000000 00000000 00000000 00000000  ....................
000000D9AE8FB694:   00000000 00000000 00000000 00000000 00000000  ....................
000000D9AE8FB6A8:   00000000 00000000 00000000 00000000 00000000  ....................
000000D9AE8FB6BC:   00000000 00000000 00000000 00000000 00000000  ....................
000000D9AE8FB6D0:   00000000 00000000 00000000 00000000 00000000  ....................
000000D9AE8FB6E4:   00000000 00000000 00000000 00000000 00000000  ....................
000000D9AE8FB6F8:   00000000 00000000 00000000 00000000 00000000  ....................
000000D9AE8FB70C:   00000000 00000000 00000000 00000000 00000000  ....................
000000D9AE8FB720:   00000000 00000000 00000000 00000000 00000000  ....................
000000D9AE8FB734:   00000000 00000000 00000000 00000000 00000000  ....................
000000D9AE8FB748:   00000000 00000000 00000000 00000000 00000000  ....................
000000D9AE8FB75C:   00000000 00000000 00000000 00000000 00000000  ....................
000000D9AE8FB770:   00000000 00000000 00000000 00000000 00000000  ....................
000000D9AE8FB784:   00000000 00000000 00000000 00000000 00000000  ....................
000000D9AE8FB798:   00000000 00000000 00000000 00000000 00000000  ....................
000000D9AE8FB7AC:   00000000 00000000 00000000 00000000 00000000  ....................
000000D9AE8FB7C0:   00000000 00000000 00000000 00000000 00000000  ....................
000000D9AE8FB7D4:   00000000 00000000 00000000 00000000 00000000  ....................
000000D9AE8FB7E8:   00000000 00000000 00000000 00000000 00000000  ....................
000000D9AE8FB7FC:   00000000 00000000 00000000 00000000 00000000  ....................
000000D9AE8FB810:   00000000 00000000 00000000 00000000 00000000  ....................
000000D9AE8FB824:   00000000 00000000 00000000 00000000 00000000  ....................
000000D9AE8FB838:   00000000 00000000 00000000 00000000 00000000  ....................
000000D9AE8FB84C:   00000000 00000000 00000000 00000000 00000000  ....................
000000D9AE8FB860:   00000000 00000000 00000000 00000000 00000000  ....................
000000D9AE8FB874:   00000000 00000000 00000000 00000000 00000000  ....................
000000D9AE8FB888:   00000000 00000000 00000000 00000000 00000000  ....................
000000D9AE8FB89C:   00000000 00000000 00000000 00000000 00000000  ....................
000000D9AE8FB8B0:   00000000 00000000 00000000 00000000 00000000  ....................
000000D9AE8FB8C4:   00000000 00000000 00000000 00000000 00000000  ....................
000000D9AE8FB8D8:   00000000 00000000 00000000 00000000 00000000  ....................
000000D9AE8FB8EC:   00000000 00000000 00000000 00000000 00000000  ....................
000000D9AE8FB900:   00000000 00000000 00000000 00000000 00000000  ....................
000000D9AE8FB914:   00000000 00000000 00000000 00000000 00000000  ....................
000000D9AE8FB928:   00000000 00000000 00000000 00000000 00000000  ....................
000000D9AE8FB93C:   00000000 00000000 00000000 00000000 00000000  ....................
000000D9AE8FB950:   00000000 00000000 00000000 00000000 00000000  ....................
000000D9AE8FB964:   00000000 00000000 00000000 00000000 00000000  ....................
000000D9AE8FB978:   00000000 00000000 00000000 00000000 00000000  ....................
000000D9AE8FB98C:   00000000 00000000 00000000 00000000 00000000  ....................
000000D9AE8FB9A0:   00000000 00000000 00000000 00000000 00000000  ....................
000000D9AE8FB9B4:   00000000 00000000 00000000 00000000 00000000  ....................
000000D9AE8FB9C8:   00000000 00000000 00000000 00000000 00000000  ....................
000000D9AE8FB9DC:   00000000 00000000 00000000 00000000 00000000  ....................
000000D9AE8FB9F0:   00000000 00000000 00000000 00000000 00000000  ....................
000000D9AE8FBA04:   00000000 00000000 00000000 00000000 00000000  ....................
000000D9AE8FBA18:   00000000 00000000 00000000 00000000 00000000  ....................
000000D9AE8FBA2C:   00000000 00000000 00000000 00000000 00000000  ....................
000000D9AE8FBA40:   00000000 00000000 00000000 00000000 00000000  ....................
000000D9AE8FBA54:   00000000 00000000 00000000 00000000 00000000  ....................
000000D9AE8FBA68:   00000000 00000000 00000000 00000000 00000000  ....................
000000D9AE8FBA7C:   00000000 00000000 00000000 00000000 00000000  ....................
000000D9AE8FBA90:   00000000 00000000 00000000 00000000 00000000  ....................
000000D9AE8FBAA4:   00000000 00000000 00000000 00000000 00000000  ....................
000000D9AE8FBAB8:   00000000 00000000 00000000 00000000 00000000  ....................
000000D9AE8FBACC:   00000000 00000000 00000000 00000000 00000000  ....................
000000D9AE8FBAE0:   00000000 00000000 00000000 00000000 00000000  ....................
000000D9AE8FBAF4:   00000000 00000000 00000000 00000000 00000000  ....................
000000D9AE8FBB08:   00000000 00000000 00000000 00000000 00000000  ....................
000000D9AE8FBB1C:   00000000 00000000 00000000 00000000 00000000  ....................
000000D9AE8FBB30:   00000000 00000000 00000000 00000000 00000000  ....................
000000D9AE8FBB44:   00000000 00000000 00000000 00000000 00000000  ....................
000000D9AE8FBB58:   00000000 00000000 00000000 00000000 00000000  ....................
000000D9AE8FBB6C:   00000000 00000000 00000000 00000000 00000000  ....................
000000D9AE8FBB80:   00000000 00000000 00000000 00000000 00000000  ....................
000000D9AE8FBB94:   00000000 00000000 00000000 00000000 00000000  ....................
000000D9AE8FBBA8:   00000000 00000000 00000000 00000000 00000000  ....................
000000D9AE8FBBBC:   00000000 00000000 00000000 00000000 00000000  ....................
000000D9AE8FBBD0:   00000000 00000000 00000000 00000000 00000000  ....................
000000D9AE8FBBE4:   00000000 00000000 00000000 00000000 00000000  ....................
000000D9AE8FBBF8:   00000000 00000000 00000000 00000000 00000000  ....................
000000D9AE8FBC0C:   00000000 00000000 00000000 00000000 00000000  ....................
000000D9AE8FBC20:   00000000 00000000 00000000 00000000 00000000  ....................
000000D9AE8FBC34:   00000000 00000000 00000000 00000000 00000000  ....................
000000D9AE8FBC48:   00000000 00000000 00000000 00000000 00000000  ....................
000000D9AE8FBC5C:   00000000 00000000 00000000 00000000 00000000  ....................
000000D9AE8FBC70:   00000000 00000000 00000000 00000000 00000000  ....................
000000D9AE8FBC84:   00000000 00000000 00000000 00000000 00000000  ....................
000000D9AE8FBC98:   00000000 00000000 00000000 00000000 00000000  ....................
000000D9AE8FBCAC:   00000000 00000000 00000000 00000000 00000000  ....................
000000D9AE8FBCC0:   00000000 00000000 00000000 00000000 00000000  ....................
000000D9AE8FBCD4:   00000000 00000000 00000000 00000000 00000000  ....................
000000D9AE8FBCE8:   00000000 00000000 00000000 00000000 00000000  ....................
000000D9AE8FBCFC:   00000000 00000000 00000000 00000000 00000000  ....................
000000D9AE8FBD10:   00000000 00000000 00000000 00000000 00000000  ....................
000000D9AE8FBD24:   00000000 00000000 00000000 00000000 00000000  ....................
000000D9AE8FBD38:   00000000 00000000 00000000 00000000 00000000  ....................
000000D9AE8FBD4C:   00000000 00000000 00000000 00000000 00000000  ....................
000000D9AE8FBD60:   00000000 00000000 00000000 00000000 00000000  ....................
000000D9AE8FBD74:   00000000 00000000 00000000 00000000 00000000  ....................
000000D9AE8FBD88:   00000000 00000000 00000000 00000000 00000000  ....................
000000D9AE8FBD9C:   00000000 00000000 00000000 00000000 00000000  ....................
000000D9AE8FBDB0:   00000000 00000000 00000000 00000000 00000000  ....................
000000D9AE8FBDC4:   00000000 00000000 00000000 00000000 00000000  ....................
000000D9AE8FBDD8:   00000000 00000000 00000000 00000000 00000000  ....................
000000D9AE8FBDEC:   00000000 00000000 00000000 00000000 00000000  ....................
000000D9AE8FBE00:   00000000 00000000 00000000 00000000 00000000  ....................
000000D9AE8FBE14:   00000000 00000000 00000000 00000000 00000000  ....................
000000D9AE8FBE28:   00000000 00000000 00000000 00000000 00000000  ....................
000000D9AE8FBE3C:   00000000 00000000 00000000 00000000 00000000  ....................
000000D9AE8FBE50:   00000000 00000000 00000000 00000000 00000000  ....................
000000D9AE8FBE64:   00000000 00000000 00000000 00000000 00000000  ....................
000000D9AE8FBE78:   00000000 00000000 00000000 00000000 00000000  ....................
000000D9AE8FBE8C:   00000000 00000000 00000000 00000000 00000000  ....................
000000D9AE8FBEA0:   00000000 00000000 00000000 00000000 00000000  ....................
000000D9AE8FBEB4:   00000000 00000000 00000000 00000000 00000000  ....................
000000D9AE8FBEC8:   00000000 00000000 00000000 00000000 00000000  ....................
000000D9AE8FBEDC:   00000000 00000000 00000000 00000000 00000000  ....................
000000D9AE8FBEF0:   00000000 00000000 00000000 00000000 00000000  ....................
000000D9AE8FBF04:   00000000 00000000 00000000 00000000 00000000  ....................
000000D9AE8FBF18:   00000000 00000000 00000000 00000000 00000000  ....................
000000D9AE8FBF2C:   00000000 00000000 00000000 00000000 00000000  ....................
000000D9AE8FBF40:   00000000 00000000 00000000 00000000 00000000  ....................
000000D9AE8FBF54:   00000000 00000000 00000000 00000000 00000000  ....................
000000D9AE8FBF68:   00000000 00000000 00000000 00000000 00000000  ....................
000000D9AE8FBF7C:   00000000 00000000 00000000 00000000 00000000  ....................
000000D9AE8FBF90:   00000000 00000000 00000000 00000000 00000000  ....................
000000D9AE8FBFA4:   00000000 00000000 00000000 00000000 00000000  ....................
000000D9AE8FBFB8:   00000000 00000000 00000000 00000000 00000000  ....................
000000D9AE8FBFCC:   00000000 00000000 00000000 00000000 00000000  ....................
000000D9AE8FBFE0:   00000000 00000000 00000000 00000000 00000000  ....................
000000D9AE8FBFF4:   00000000 00000000 be006000                    ........¾.`.


DBCC execution completed. If DBCC printed error messages, contact your system administrator.
