DBCC execution completed. If DBCC printed error messages, contact your system administrator.

PAGE: (1:6)


BUFFER:


BUF @0x00000278ECABB940

bpage = 0x00000278BE4A2000          bhash = 0x0000000000000000          bpageno = (1:6)
bdbid = 7                           breferences = 1                     bcputicks = 641
bsampleCount = 1                    bUse1 = 46775                       bstat = 0x9
blog = 0x15ab215a                   bnext = 0x0000000000000000          bDirtyContext = 0x0000000000000000
bstat2 = 0x0

PAGE HEADER:


Page @0x00000278BE4A2000

m_pageId = (1:6)                    m_headerVersion = 1                 m_type = 16
m_typeFlagBits = 0x0                m_level = 0                         m_flagBits = 0x0
m_objId (AllocUnitId.idObj) = 99    m_indexId (AllocUnitId.idInd) = 0   Metadata: AllocUnitId = 6488064
Metadata: PartitionId = 0           Metadata: IndexId = 0               Metadata: ObjectId = 99
m_prevPage = (0:0)                  m_nextPage = (0:0)                  pminlen = 90
m_slotCnt = 2                       m_freeCnt = 6                       m_freeData = 8182
m_reservedCnt = 0                   m_lsn = (34:2136:50)                m_xactReserved = 0
m_xdesId = (0:0)                    m_ghostRecCnt = 0                   m_tornBits = -1416389244
DB Frag ID = 1

Allocation Status

GAM (1:2) = ALLOCATED               SGAM (1:3) = NOT ALLOCATED          PFS (1:1) = 0x44 ALLOCATED 100_PCT_FULL
DIFF (1:6) = CHANGED                ML (1:7) = NOT MIN_LOGGED



(1:0)        - (1:336)      =     CHANGED
(1:344)      -              = NOT CHANGED
(1:352)      -              =     CHANGED
(1:360)      -              = NOT CHANGED
(1:368)      - (1:416)      =     CHANGED
(1:424)      - (1:440)      = NOT CHANGED
(1:448)      - (1:512)      =     CHANGED
(1:520)      -              = NOT CHANGED
(1:528)      -              =     CHANGED
(1:536)      - (1:552)      = NOT CHANGED
(1:560)      - (1:576)      =     CHANGED
(1:584)      -              = NOT CHANGED
(1:592)      -              =     CHANGED
(1:600)      - (1:616)      = NOT CHANGED
(1:624)      - (1:680)      =     CHANGED
(1:688)      - (1:1016)     = NOT CHANGED
DATA:


Memory Dump @0x000000D9AE6FA000

000000D9AE6FA000:   01100000 00000000 00000000 00005a00 00000000  ..............Z.....
000000D9AE6FA014:   00000200 63000000 0600f61f 06000000 01000000  ....c.....ö.........
000000D9AE6FA028:   22000000 58080000 32000000 00000000 00000000  "...X...2...........
000000D9AE6FA03C:   849d93ab 00000000 00000000 00000000 00000000  .«................
000000D9AE6FA050:   00000000 00000000 00000000 00000000 00005e00  ..................^.
000000D9AE6FA064:   00000000 00000000 00000000 00000000 00000000  ....................
000000D9AE6FA078:   00000000 00000000 00000000 00000000 00000000  ....................
000000D9AE6FA08C:   00000000 00000000 00000000 00000000 00000000  ....................
000000D9AE6FA0A0:   00000000 00000000 00000000 00000000 00000000  ....................
000000D9AE6FA0B4:   00000000 00000000 00000000 381fffff ffffffd7  ............8.ÿÿÿÿÿ×
000000D9AE6FA0C8:   1fffc5c5 3f000000 00000000 00000000 00000000  .ÿÅÅ?...............
000000D9AE6FA0DC:   00000000 00000000 00000000 00000000 00000000  ....................
000000D9AE6FA0F0:   00000000 00000000 00000000 00000000 00000000  ....................
000000D9AE6FA104:   00000000 00000000 00000000 00000000 00000000  ....................
000000D9AE6FA118:   00000000 00000000 00000000 00000000 00000000  ....................
000000D9AE6FA12C:   00000000 00000000 00000000 00000000 00000000  ....................
000000D9AE6FA140:   08000000 00000000 00000000 00000000 00000000  ....................
000000D9AE6FA154:   00000000 00000000 00000000 00000000 00000000  ....................
000000D9AE6FA168:   00000000 00000000 00000000 00000000 00000000  ....................
000000D9AE6FA17C:   00000000 00000000 00000000 00000000 00000000  ....................
000000D9AE6FA190:   00000000 00000000 00000000 00000000 00000000  ....................
000000D9AE6FA1A4:   00000000 00000000 00000000 00000000 00000000  ....................
000000D9AE6FA1B8:   00000000 00004000 00000000 00000000 00000000  ......@.............
000000D9AE6FA1CC:   00000000 00000000 00000000 00000000 00000000  ....................
000000D9AE6FA1E0:   00000000 00000000 00000000 00000000 00000000  ....................
000000D9AE6FA1F4:   00000000 00000000 00000000 00000000 00000000  ....................
000000D9AE6FA208:   00000000 00000000 00000000 00000000 00000000  ....................
000000D9AE6FA21C:   00000000 00000000 00000000 00000000 00000000  ....................
000000D9AE6FA230:   00000000 00000000 00000000 00020000 00000000  ....................
000000D9AE6FA244:   00000000 00000000 00000000 00000000 00000000  ....................
000000D9AE6FA258:   00000000 00000000 00000000 00000000 00000000  ....................
000000D9AE6FA26C:   00000000 00000000 00000000 00000000 00000000  ....................
000000D9AE6FA280:   00000000 00000000 00000000 00000000 00000000  ....................
000000D9AE6FA294:   00000000 00000000 00000000 00000000 00000000  ....................
000000D9AE6FA2A8:   00000000 00000000 00000000 00000000 00000010  ....................
000000D9AE6FA2BC:   00000000 00000000 00000000 00000000 00000000  ....................
000000D9AE6FA2D0:   00000000 00000000 00000000 00000000 00000000  ....................
000000D9AE6FA2E4:   00000000 00000000 00000000 00000000 00000000  ....................
000000D9AE6FA2F8:   00000000 00000000 00000000 00000000 00000000  ....................
000000D9AE6FA30C:   00000000 00000000 00000000 00000000 00000000  ....................
000000D9AE6FA320:   00000000 00000000 00000000 00000000 00000000  ....................
000000D9AE6FA334:   00000000 00800000 00000000 00000000 00000000  ....................
000000D9AE6FA348:   00000000 00000000 00000000 00000000 00000000  ....................
000000D9AE6FA35C:   00000000 00000000 00000000 00000000 00000000  ....................
000000D9AE6FA370:   00000000 00000000 00000000 00000000 00000000  ....................
000000D9AE6FA384:   00000000 00000000 00000000 00000000 00000000  ....................
000000D9AE6FA398:   00000000 00000000 00000000 00000000 00000000  ....................
000000D9AE6FA3AC:   00000000 00000000 00000000 04000000 00000000  ....................
000000D9AE6FA3C0:   00000000 00000000 00000000 00000000 00000000  ....................
000000D9AE6FA3D4:   00000000 00000000 00000000 00000000 00000000  ....................
000000D9AE6FA3E8:   00000000 00000000 00000000 00000000 00000000  ....................
000000D9AE6FA3FC:   00000000 00000000 00000000 00000000 00000000  ....................
000000D9AE6FA410:   00000000 00000000 00000000 00000000 00000000  ....................
000000D9AE6FA424:   00000000 00000000 00000000 00000000 00002000  .................. .
000000D9AE6FA438:   00000000 00000000 00000000 00000000 00000000  ....................
000000D9AE6FA44C:   00000000 00000000 00000000 00000000 00000000  ....................
000000D9AE6FA460:   00000000 00000000 00000000 00000000 00000000  ....................
000000D9AE6FA474:   00000000 00000000 00000000 00000000 00000000  ....................
000000D9AE6FA488:   00000000 00000000 00000000 00000000 00000000  ....................
000000D9AE6FA49C:   00000000 00000000 00000000 00000000 00000000  ....................
000000D9AE6FA4B0:   00000000 00010000 00000000 00000000 00000000  ....................
000000D9AE6FA4C4:   00000000 00000000 00000000 00000000 00000000  ....................
000000D9AE6FA4D8:   00000000 00000000 00000000 00000000 00000000  ....................
000000D9AE6FA4EC:   00000000 00000000 00000000 00000000 00000000  ....................
000000D9AE6FA500:   00000000 00000000 00000000 00000000 00000000  ....................
000000D9AE6FA514:   00000000 00000000 00000000 00000000 00000000  ....................
000000D9AE6FA528:   00000000 00000000 00000008 00000000 00000000  ....................
000000D9AE6FA53C:   00000000 00000000 00000000 00000000 00000000  ....................
000000D9AE6FA550:   00000000 00000000 00000000 00000000 00000000  ....................
000000D9AE6FA564:   00000000 00000000 00000000 00000000 00000000  ....................
000000D9AE6FA578:   00000000 00000000 00000000 00000000 00000000  ....................
000000D9AE6FA58C:   00000000 00000000 00000000 00000000 00000000  ....................
000000D9AE6FA5A0:   00000000 00000000 00000000 00000000 00400000  .................@..
000000D9AE6FA5B4:   00000000 00000000 00000000 00000000 00000000  ....................
000000D9AE6FA5C8:   00000000 00000000 00000000 00000000 00000000  ....................
000000D9AE6FA5DC:   00000000 00000000 00000000 00000000 00000000  ....................
000000D9AE6FA5F0:   00000000 00000000 00000000 00000000 00000000  ....................
000000D9AE6FA604:   00000000 00000000 00000000 00000000 00000000  ....................
000000D9AE6FA618:   00000000 00000000 00000000 00000000 00000000  ....................
000000D9AE6FA62C:   00000000 02000000 00000000 00000000 00000000  ....................
000000D9AE6FA640:   00000000 00000000 00000000 00000000 00000000  ....................
000000D9AE6FA654:   00000000 00000000 00000000 00000000 00000000  ....................
000000D9AE6FA668:   00000000 00000000 00000000 00000000 00000000  ....................
000000D9AE6FA67C:   00000000 00000000 00000000 00000000 00000000  ....................
000000D9AE6FA690:   00000000 00000000 00000000 00000000 00000000  ....................
000000D9AE6FA6A4:   00000000 00000000 00001000 00000000 00000000  ....................
000000D9AE6FA6B8:   00000000 00000000 00000000 00000000 00000000  ....................
000000D9AE6FA6CC:   00000000 00000000 00000000 00000000 00000000  ....................
000000D9AE6FA6E0:   00000000 00000000 00000000 00000000 00000000  ....................
000000D9AE6FA6F4:   00000000 00000000 00000000 00000000 00000000  ....................
000000D9AE6FA708:   00000000 00000000 00000000 00000000 00000000  ....................
000000D9AE6FA71C:   00000000 00000000 00000000 00000000 80000000  ....................
000000D9AE6FA730:   00000000 00000000 00000000 00000000 00000000  ....................
000000D9AE6FA744:   00000000 00000000 00000000 00000000 00000000  ....................
000000D9AE6FA758:   00000000 00000000 00000000 00000000 00000000  ....................
000000D9AE6FA76C:   00000000 00000000 00000000 00000000 00000000  ....................
000000D9AE6FA780:   00000000 00000000 00000000 00000000 00000000  ....................
000000D9AE6FA794:   00000000 00000000 00000000 00000000 00000000  ....................
000000D9AE6FA7A8:   00000004 00000000 00000000 00000000 00000000  ....................
000000D9AE6FA7BC:   00000000 00000000 00000000 00000000 00000000  ....................
000000D9AE6FA7D0:   00000000 00000000 00000000 00000000 00000000  ....................
000000D9AE6FA7E4:   00000000 00000000 00000000 00000000 00000000  ....................
000000D9AE6FA7F8:   00000000 00000000 00000000 00000000 00000000  ....................
000000D9AE6FA80C:   00000000 00000000 00000000 00000000 00000000  ....................
000000D9AE6FA820:   00000000 00000000 00200000 00000000 00000000  ......... ..........
000000D9AE6FA834:   00000000 00000000 00000000 00000000 00000000  ....................
000000D9AE6FA848:   00000000 00000000 00000000 00000000 00000000  ....................
000000D9AE6FA85C:   00000000 00000000 00000000 00000000 00000000  ....................
000000D9AE6FA870:   00000000 00000000 00000000 00000000 00000000  ....................
000000D9AE6FA884:   00000000 00000000 00000000 00000000 00000000  ....................
000000D9AE6FA898:   00000000 00000000 00000000 00000000 01000000  ....................
000000D9AE6FA8AC:   00000000 00000000 00000000 00000000 00000000  ....................
000000D9AE6FA8C0:   00000000 00000000 00000000 00000000 00000000  ....................
000000D9AE6FA8D4:   00000000 00000000 00000000 00000000 00000000  ....................
000000D9AE6FA8E8:   00000000 00000000 00000000 00000000 00000000  ....................
000000D9AE6FA8FC:   00000000 00000000 00000000 00000000 00000000  ....................
000000D9AE6FA910:   00000000 00000000 00000000 00000000 00000000  ....................
000000D9AE6FA924:   00000800 00000000 00000000 00000000 00000000  ....................
000000D9AE6FA938:   00000000 00000000 00000000 00000000 00000000  ....................
000000D9AE6FA94C:   00000000 00000000 00000000 00000000 00000000  ....................
000000D9AE6FA960:   00000000 00000000 00000000 00000000 00000000  ....................
000000D9AE6FA974:   00000000 00000000 00000000 00000000 00000000  ....................
000000D9AE6FA988:   00000000 00000000 00000000 00000000 00000000  ....................
000000D9AE6FA99C:   00000000 00000000 40000000 00000000 00000000  ........@...........
000000D9AE6FA9B0:   00000000 00000000 00000000 00000000 00000000  ....................
000000D9AE6FA9C4:   00000000 00000000 00000000 00000000 00000000  ....................
000000D9AE6FA9D8:   00000000 00000000 00000000 00000000 00000000  ....................
000000D9AE6FA9EC:   00000000 00000000 00000000 00000000 00000000  ....................
000000D9AE6FAA00:   00000000 00000000 00000000 00000000 00000000  ....................
000000D9AE6FAA14:   00000000 00000000 00000000 00000002 00000000  ....................
000000D9AE6FAA28:   00000000 00000000 00000000 00000000 00000000  ....................
000000D9AE6FAA3C:   00000000 00000000 00000000 00000000 00000000  ....................
000000D9AE6FAA50:   00000000 00000000 00000000 00000000 00000000  ....................
000000D9AE6FAA64:   00000000 00000000 00000000 00000000 00000000  ....................
000000D9AE6FAA78:   00000000 00000000 00000000 00000000 00000000  ....................
000000D9AE6FAA8C:   00000000 00000000 00000000 00000000 00000000  ....................
000000D9AE6FAAA0:   00100000 00000000 00000000 00000000 00000000  ....................
000000D9AE6FAAB4:   00000000 00000000 00000000 00000000 00000000  ....................
000000D9AE6FAAC8:   00000000 00000000 00000000 00000000 00000000  ....................
000000D9AE6FAADC:   00000000 00000000 00000000 00000000 00000000  ....................
000000D9AE6FAAF0:   00000000 00000000 00000000 00000000 00000000  ....................
000000D9AE6FAB04:   00000000 00000000 00000000 00000000 00000000  ....................
000000D9AE6FAB18:   00000000 00000080 00000000 00000000 00000000  ....................
000000D9AE6FAB2C:   00000000 00000000 00000000 00000000 00000000  ....................
000000D9AE6FAB40:   00000000 00000000 00000000 00000000 00000000  ....................
000000D9AE6FAB54:   00000000 00000000 00000000 00000000 00000000  ....................
000000D9AE6FAB68:   00000000 00000000 00000000 00000000 00000000  ....................
000000D9AE6FAB7C:   00000000 00000000 00000000 00000000 00000000  ....................
000000D9AE6FAB90:   00000000 00000000 00000000 00000400 00000000  ....................
000000D9AE6FABA4:   00000000 00000000 00000000 00000000 00000000  ....................
000000D9AE6FABB8:   00000000 00000000 00000000 00000000 00000000  ....................
000000D9AE6FABCC:   00000000 00000000 00000000 00000000 00000000  ....................
000000D9AE6FABE0:   00000000 00000000 00000000 00000000 00000000  ....................
000000D9AE6FABF4:   00000000 00000000 00000000 00000000 00000000  ....................
000000D9AE6FAC08:   00000000 00000000 00000000 00000000 00000000  ....................
000000D9AE6FAC1C:   20000000 00000000 00000000 00000000 00000000   ...................
000000D9AE6FAC30:   00000000 00000000 00000000 00000000 00000000  ....................
000000D9AE6FAC44:   00000000 00000000 00000000 00000000 00000000  ....................
000000D9AE6FAC58:   00000000 00000000 00000000 00000000 00000000  ....................
000000D9AE6FAC6C:   00000000 00000000 00000000 00000000 00000000  ....................
000000D9AE6FAC80:   00000000 00000000 00000000 00000000 00000000  ....................
000000D9AE6FAC94:   00000000 00000001 00000000 00000000 00000000  ....................
000000D9AE6FACA8:   00000000 00000000 00000000 00000000 00000000  ....................
000000D9AE6FACBC:   00000000 00000000 00000000 00000000 00000000  ....................
000000D9AE6FACD0:   00000000 00000000 00000000 00000000 00000000  ....................
000000D9AE6FACE4:   00000000 00000000 00000000 00000000 00000000  ....................
000000D9AE6FACF8:   00000000 00000000 00000000 00000000 00000000  ....................
000000D9AE6FAD0C:   00000000 00000000 00000000 00080000 00000000  ....................
000000D9AE6FAD20:   00000000 00000000 00000000 00000000 00000000  ....................
000000D9AE6FAD34:   00000000 00000000 00000000 00000000 00000000  ....................
000000D9AE6FAD48:   00000000 00000000 00000000 00000000 00000000  ....................
000000D9AE6FAD5C:   00000000 00000000 00000000 00000000 00000000  ....................
000000D9AE6FAD70:   00000000 00000000 00000000 00000000 00000000  ....................
000000D9AE6FAD84:   00000000 00000000 00000000 00000000 00000040  ...................@
000000D9AE6FAD98:   00000000 00000000 00000000 00000000 00000000  ....................
000000D9AE6FADAC:   00000000 00000000 00000000 00000000 00000000  ....................
000000D9AE6FADC0:   00000000 00000000 00000000 00000000 00000000  ....................
000000D9AE6FADD4:   00000000 00000000 00000000 00000000 00000000  ....................
000000D9AE6FADE8:   00000000 00000000 00000000 00000000 00000000  ....................
000000D9AE6FADFC:   00000000 00000000 00000000 00000000 00000000  ....................
000000D9AE6FAE10:   00000000 00000200 00000000 00000000 00000000  ....................
000000D9AE6FAE24:   00000000 00000000 00000000 00000000 00000000  ....................
000000D9AE6FAE38:   00000000 00000000 00000000 00000000 00000000  ....................
000000D9AE6FAE4C:   00000000 00000000 00000000 00000000 00000000  ....................
000000D9AE6FAE60:   00000000 00000000 00000000 00000000 00000000  ....................
000000D9AE6FAE74:   00000000 00000000 00000000 00000000 00000000  ....................
000000D9AE6FAE88:   00000000 00000000 00000000 10000000 00000000  ....................
000000D9AE6FAE9C:   00000000 00000000 00000000 00000000 00000000  ....................
000000D9AE6FAEB0:   00000000 00000000 00000000 00000000 00000000  ....................
000000D9AE6FAEC4:   00000000 00000000 00000000 00000000 00000000  ....................
000000D9AE6FAED8:   00000000 00000000 00000000 00000000 00000000  ....................
000000D9AE6FAEEC:   00000000 00000000 00000000 00000000 00000000  ....................
000000D9AE6FAF00:   00000000 00000000 00000000 00000000 00008000  ....................
000000D9AE6FAF14:   00000000 00000000 00000000 00000000 00000000  ....................
000000D9AE6FAF28:   00000000 00000000 00000000 00000000 00000000  ....................
000000D9AE6FAF3C:   00000000 00000000 00000000 00000000 00000000  ....................
000000D9AE6FAF50:   00000000 00000000 00000000 00000000 00000000  ....................
000000D9AE6FAF64:   00000000 00000000 00000000 00000000 00000000  ....................
000000D9AE6FAF78:   00000000 00000000 00000000 00000000 00000000  ....................
000000D9AE6FAF8C:   00000000 00040000 00000000 00000000 00000000  ....................
000000D9AE6FAFA0:   00000000 00000000 00000000 00000000 00000000  ....................
000000D9AE6FAFB4:   00000000 00000000 00000000 00000000 00000000  ....................
000000D9AE6FAFC8:   00000000 00000000 00000000 00000000 00000000  ....................
000000D9AE6FAFDC:   00000000 00000000 00000000 00000000 00000000  ....................
000000D9AE6FAFF0:   00000000 00000000 00000000 00000000 00000000  ....................
000000D9AE6FB004:   00000000 00000000 00000020 00000000 00000000  ........... ........
000000D9AE6FB018:   00000000 00000000 00000000 00000000 00000000  ....................
000000D9AE6FB02C:   00000000 00000000 00000000 00000000 00000000  ....................
000000D9AE6FB040:   00000000 00000000 00000000 00000000 00000000  ....................
000000D9AE6FB054:   00000000 00000000 00000000 00000000 00000000  ....................
000000D9AE6FB068:   00000000 00000000 00000000 00000000 00000000  ....................
000000D9AE6FB07C:   00000000 00000000 00000000 00000000 00000100  ....................
000000D9AE6FB090:   00000000 00000000 00000000 00000000 00000000  ....................
000000D9AE6FB0A4:   00000000 00000000 00000000 00000000 00000000  ....................
000000D9AE6FB0B8:   00000000 00000000 00000000 00000000 00000000  ....................
000000D9AE6FB0CC:   00000000 00000000 00000000 00000000 00000000  ....................
000000D9AE6FB0E0:   00000000 00000000 00000000 00000000 00000000  ....................
000000D9AE6FB0F4:   00000000 00000000 00000000 00000000 00000000  ....................
000000D9AE6FB108:   00000000 08000000 00000000 00000000 00000000  ....................
000000D9AE6FB11C:   00000000 00000000 00000000 00000000 00000000  ....................
000000D9AE6FB130:   00000000 00000000 00000000 00000000 00000000  ....................
000000D9AE6FB144:   00000000 00000000 00000000 00000000 00000000  ....................
000000D9AE6FB158:   00000000 00000000 00000000 00000000 00000000  ....................
000000D9AE6FB16C:   00000000 00000000 00000000 00000000 00000000  ....................
000000D9AE6FB180:   00000000 00000000 00004000 00000000 00000000  ..........@.........
000000D9AE6FB194:   00000000 00000000 00000000 00000000 00000000  ....................
000000D9AE6FB1A8:   00000000 00000000 00000000 00000000 00000000  ....................
000000D9AE6FB1BC:   00000000 00000000 00000000 00000000 00000000  ....................
000000D9AE6FB1D0:   00000000 00000000 00000000 00000000 00000000  ....................
000000D9AE6FB1E4:   00000000 00000000 00000000 00000000 00000000  ....................
000000D9AE6FB1F8:   00000000 00000000 00000000 00000000 00020000  ....................
000000D9AE6FB20C:   00000000 00000000 00000000 00000000 00000000  ....................
000000D9AE6FB220:   00000000 00000000 00000000 00000000 00000000  ....................
000000D9AE6FB234:   00000000 00000000 00000000 00000000 00000000  ....................
000000D9AE6FB248:   00000000 00000000 00000000 00000000 00000000  ....................
000000D9AE6FB25C:   00000000 00000000 00000000 00000000 00000000  ....................
000000D9AE6FB270:   00000000 00000000 00000000 00000000 00000000  ....................
000000D9AE6FB284:   00000010 00000000 00000000 00000000 00000000  ....................
000000D9AE6FB298:   00000000 00000000 00000000 00000000 00000000  ....................
000000D9AE6FB2AC:   00000000 00000000 00000000 00000000 00000000  ....................
000000D9AE6FB2C0:   00000000 00000000 00000000 00000000 00000000  ....................
000000D9AE6FB2D4:   00000000 00000000 00000000 00000000 00000000  ....................
000000D9AE6FB2E8:   00000000 00000000 00000000 00000000 00000000  ....................
000000D9AE6FB2FC:   00000000 00000000 00800000 00000000 00000000  ....................
000000D9AE6FB310:   00000000 00000000 00000000 00000000 00000000  ....................
000000D9AE6FB324:   00000000 00000000 00000000 00000000 00000000  ....................
000000D9AE6FB338:   00000000 00000000 00000000 00000000 00000000  ....................
000000D9AE6FB34C:   00000000 00000000 00000000 00000000 00000000  ....................
000000D9AE6FB360:   00000000 00000000 00000000 00000000 00000000  ....................
000000D9AE6FB374:   00000000 00000000 00000000 00000000 04000000  ....................
000000D9AE6FB388:   00000000 00000000 00000000 00000000 00000000  ....................
000000D9AE6FB39C:   00000000 00000000 00000000 00000000 00000000  ....................
000000D9AE6FB3B0:   00000000 00000000 00000000 00000000 00000000  ....................
000000D9AE6FB3C4:   00000000 00000000 00000000 00000000 00000000  ....................
000000D9AE6FB3D8:   00000000 00000000 00000000 00000000 00000000  ....................
000000D9AE6FB3EC:   00000000 00000000 00000000 00000000 00000000  ....................
000000D9AE6FB400:   00002000 00000000 00000000 00000000 00000000  .. .................
000000D9AE6FB414:   00000000 00000000 00000000 00000000 00000000  ....................
000000D9AE6FB428:   00000000 00000000 00000000 00000000 00000000  ....................
000000D9AE6FB43C:   00000000 00000000 00000000 00000000 00000000  ....................
000000D9AE6FB450:   00000000 00000000 00000000 00000000 00000000  ....................
000000D9AE6FB464:   00000000 00000000 00000000 00000000 00000000  ....................
000000D9AE6FB478:   00000000 00000000 00010000 00000000 00000000  ....................
000000D9AE6FB48C:   00000000 00000000 00000000 00000000 00000000  ....................
000000D9AE6FB4A0:   00000000 00000000 00000000 00000000 00000000  ....................
000000D9AE6FB4B4:   00000000 00000000 00000000 00000000 00000000  ....................
000000D9AE6FB4C8:   00000000 00000000 00000000 00000000 00000000  ....................
000000D9AE6FB4DC:   00000000 00000000 00000000 00000000 00000000  ....................
000000D9AE6FB4F0:   00000000 00000000 00000000 00000008 00000000  ....................
000000D9AE6FB504:   00000000 00000000 00000000 00000000 00000000  ....................
000000D9AE6FB518:   00000000 00000000 00000000 00000000 00000000  ....................
000000D9AE6FB52C:   00000000 00000000 00000000 00000000 00000000  ....................
000000D9AE6FB540:   00000000 00000000 00000000 00000000 00000000  ....................
000000D9AE6FB554:   00000000 00000000 00000000 00000000 00000000  ....................
000000D9AE6FB568:   00000000 00000000 00000000 00000000 00000000  ....................
000000D9AE6FB57C:   00400000 00000000 00000000 00000000 00000000  .@..................
000000D9AE6FB590:   00000000 00000000 00000000 00000000 00000000  ....................
000000D9AE6FB5A4:   00000000 00000000 00000000 00000000 00000000  ....................
000000D9AE6FB5B8:   00000000 00000000 00000000 00000000 00000000  ....................
000000D9AE6FB5CC:   00000000 00000000 00000000 00000000 00000000  ....................
000000D9AE6FB5E0:   00000000 00000000 00000000 00000000 00000000  ....................
000000D9AE6FB5F4:   00000000 00000000 02000000 00000000 00000000  ....................
000000D9AE6FB608:   00000000 00000000 00000000 00000000 00000000  ....................
000000D9AE6FB61C:   00000000 00000000 00000000 00000000 00000000  ....................
000000D9AE6FB630:   00000000 00000000 00000000 00000000 00000000  ....................
000000D9AE6FB644:   00000000 00000000 00000000 00000000 00000000  ....................
000000D9AE6FB658:   00000000 00000000 00000000 00000000 00000000  ....................
000000D9AE6FB66C:   00000000 00000000 00000000 00001000 00000000  ....................
000000D9AE6FB680:   00000000 00000000 00000000 00000000 00000000  ....................
000000D9AE6FB694:   00000000 00000000 00000000 00000000 00000000  ....................
000000D9AE6FB6A8:   00000000 00000000 00000000 00000000 00000000  ....................
000000D9AE6FB6BC:   00000000 00000000 00000000 00000000 00000000  ....................
000000D9AE6FB6D0:   00000000 00000000 00000000 00000000 00000000  ....................
000000D9AE6FB6E4:   00000000 00000000 00000000 00000000 00000000  ....................
000000D9AE6FB6F8:   80000000 00000000 00000000 00000000 00000000  ....................
000000D9AE6FB70C:   00000000 00000000 00000000 00000000 00000000  ....................
000000D9AE6FB720:   00000000 00000000 00000000 00000000 00000000  ....................
000000D9AE6FB734:   00000000 00000000 00000000 00000000 00000000  ....................
000000D9AE6FB748:   00000000 00000000 00000000 00000000 00000000  ....................
000000D9AE6FB75C:   00000000 00000000 00000000 00000000 00000000  ....................
000000D9AE6FB770:   00000000 00000004 00000000 00000000 00000000  ....................
000000D9AE6FB784:   00000000 00000000 00000000 00000000 00000000  ....................
000000D9AE6FB798:   00000000 00000000 00000000 00000000 00000000  ....................
000000D9AE6FB7AC:   00000000 00000000 00000000 00000000 00000000  ....................
000000D9AE6FB7C0:   00000000 00000000 00000000 00000000 00000000  ....................
000000D9AE6FB7D4:   00000000 00000000 00000000 00000000 00000000  ....................
000000D9AE6FB7E8:   00000000 00000000 00000000 00200000 00000000  ............. ......
000000D9AE6FB7FC:   00000000 00000000 00000000 00000000 00000000  ....................
000000D9AE6FB810:   00000000 00000000 00000000 00000000 00000000  ....................
000000D9AE6FB824:   00000000 00000000 00000000 00000000 00000000  ....................
000000D9AE6FB838:   00000000 00000000 00000000 00000000 00000000  ....................
000000D9AE6FB84C:   00000000 00000000 00000000 00000000 00000000  ....................
000000D9AE6FB860:   00000000 00000000 00000000 00000000 00000000  ....................
000000D9AE6FB874:   01000000 00000000 00000000 00000000 00000000  ....................
000000D9AE6FB888:   00000000 00000000 00000000 00000000 00000000  ....................
000000D9AE6FB89C:   00000000 00000000 00000000 00000000 00000000  ....................
000000D9AE6FB8B0:   00000000 00000000 00000000 00000000 00000000  ....................
000000D9AE6FB8C4:   00000000 00000000 00000000 00000000 00000000  ....................
000000D9AE6FB8D8:   00000000 00000000 00000000 00000000 00000000  ....................
000000D9AE6FB8EC:   00000000 00000800 00000000 00000000 00000000  ....................
000000D9AE6FB900:   00000000 00000000 00000000 00000000 00000000  ....................
000000D9AE6FB914:   00000000 00000000 00000000 00000000 00000000  ....................
000000D9AE6FB928:   00000000 00000000 00000000 00000000 00000000  ....................
000000D9AE6FB93C:   00000000 00000000 00000000 00000000 00000000  ....................
000000D9AE6FB950:   00000000 00000000 00000000 00000000 00000000  ....................
000000D9AE6FB964:   00000000 00000000 00000000 40000000 00000000  ............@.......
000000D9AE6FB978:   00000000 00000000 00000000 00000000 00000000  ....................
000000D9AE6FB98C:   00000000 00000000 00000000 00000000 00000000  ....................
000000D9AE6FB9A0:   00000000 00000000 00000000 00000000 00000000  ....................
000000D9AE6FB9B4:   00000000 00000000 00000000 00000000 00000000  ....................
000000D9AE6FB9C8:   00000000 00000000 00000000 00000000 00000000  ....................
000000D9AE6FB9DC:   00000000 00000000 00000000 00000000 00000002  ....................
000000D9AE6FB9F0:   00000000 00000000 00000000 00000000 00000000  ....................
000000D9AE6FBA04:   00000000 00000000 00000000 00000000 00000000  ....................
000000D9AE6FBA18:   00000000 00000000 00000000 00000000 00000000  ....................
000000D9AE6FBA2C:   00000000 00000000 00000000 00000000 00000000  ....................
000000D9AE6FBA40:   00000000 00000000 00000000 00000000 00000000  ....................
000000D9AE6FBA54:   00000000 00000000 00000000 00000000 00000000  ....................
000000D9AE6FBA68:   00000000 00100000 00000000 00000000 00000000  ....................
000000D9AE6FBA7C:   00000000 00000000 00000000 00000000 00000000  ....................
000000D9AE6FBA90:   00000000 00000000 00000000 00000000 00000000  ....................
000000D9AE6FBAA4:   00000000 00000000 00000000 00000000 00000000  ....................
000000D9AE6FBAB8:   00000000 00000000 00000000 00000000 00000000  ....................
000000D9AE6FBACC:   00000000 00000000 00000000 00000000 00000000  ....................
000000D9AE6FBAE0:   00000000 00000000 00000080 00000000 00000000  ....................
000000D9AE6FBAF4:   00000000 00000000 00000000 00000000 00000000  ....................
000000D9AE6FBB08:   00000000 00000000 00000000 00000000 00000000  ....................
000000D9AE6FBB1C:   00000000 00000000 00000000 00000000 00000000  ....................
000000D9AE6FBB30:   00000000 00000000 00000000 00000000 00000000  ....................
000000D9AE6FBB44:   00000000 00000000 00000000 00000000 00000000  ....................
000000D9AE6FBB58:   00000000 00000000 00000000 00000000 00000400  ....................
000000D9AE6FBB6C:   00000000 00000000 00000000 00000000 00000000  ....................
000000D9AE6FBB80:   00000000 00000000 00000000 00000000 00000000  ....................
000000D9AE6FBB94:   00000000 00000000 00000000 00000000 00000000  ....................
000000D9AE6FBBA8:   00000000 00000000 00000000 00000000 00000000  ....................
000000D9AE6FBBBC:   00000000 00000000 00000000 00000000 00000000  ....................
000000D9AE6FBBD0:   00000000 00000000 00000000 00000000 00000000  ....................
000000D9AE6FBBE4:   00000000 20000000 00000000 00000000 00000000  .... ...............
000000D9AE6FBBF8:   00000000 00000000 00000000 00000000 00000000  ....................
000000D9AE6FBC0C:   00000000 00000000 00000000 00000000 00000000  ....................
000000D9AE6FBC20:   00000000 00000000 00000000 00000000 00000000  ....................
000000D9AE6FBC34:   00000000 00000000 00000000 00000000 00000000  ....................
000000D9AE6FBC48:   00000000 00000000 00000000 00000000 00000000  ....................
000000D9AE6FBC5C:   00000000 00000000 00000001 00000000 00000000  ....................
000000D9AE6FBC70:   00000000 00000000 00000000 00000000 00000000  ....................
000000D9AE6FBC84:   00000000 00000000 00000000 00000000 00000000  ....................
000000D9AE6FBC98:   00000000 00000000 00000000 00000000 00000000  ....................
000000D9AE6FBCAC:   00000000 00000000 00000000 00000000 00000000  ....................
000000D9AE6FBCC0:   00000000 00000000 00000000 00000000 00000000  ....................
000000D9AE6FBCD4:   00000000 00000000 00000000 00000000 00080000  ....................
000000D9AE6FBCE8:   00000000 00000000 00000000 00000000 00000000  ....................
000000D9AE6FBCFC:   00000000 00000000 00000000 00000000 00000000  ....................
000000D9AE6FBD10:   00000000 00000000 00000000 00000000 00000000  ....................
000000D9AE6FBD24:   00000000 00000000 00000000 00000000 00000000  ....................
000000D9AE6FBD38:   00000000 00000000 00000000 00000000 00000000  ....................
000000D9AE6FBD4C:   00000000 00000000 00000000 00000000 00000000  ....................
000000D9AE6FBD60:   00000040 00000000 00000000 00000000 00000000  ...@................
000000D9AE6FBD74:   00000000 00000000 00000000 00000000 00000000  ....................
000000D9AE6FBD88:   00000000 00000000 00000000 00000000 00000000  ....................
000000D9AE6FBD9C:   00000000 00000000 00000000 00000000 00000000  ....................
000000D9AE6FBDB0:   00000000 00000000 00000000 00000000 00000000  ....................
000000D9AE6FBDC4:   00000000 00000000 00000000 00000000 00000000  ....................
000000D9AE6FBDD8:   00000000 00000000 00000200 00000000 00000000  ....................
000000D9AE6FBDEC:   00000000 00000000 00000000 00000000 00000000  ....................
000000D9AE6FBE00:   00000000 00000000 00000000 00000000 00000000  ....................
000000D9AE6FBE14:   00000000 00000000 00000000 00000000 00000000  ....................
000000D9AE6FBE28:   00000000 00000000 00000000 00000000 00000000  ....................
000000D9AE6FBE3C:   00000000 00000000 00000000 00000000 00000000  ....................
000000D9AE6FBE50:   00000000 00000000 00000000 00000000 10000000  ....................
000000D9AE6FBE64:   00000000 00000000 00000000 00000000 00000000  ....................
000000D9AE6FBE78:   00000000 00000000 00000000 00000000 00000000  ....................
000000D9AE6FBE8C:   00000000 00000000 00000000 00000000 00000000  ....................
000000D9AE6FBEA0:   00000000 00000000 00000000 00000000 00000000  ....................
000000D9AE6FBEB4:   00000000 00000000 00000000 00000000 00000000  ....................
000000D9AE6FBEC8:   00000000 00000000 00000000 00000000 00000000  ....................
000000D9AE6FBEDC:   00008000 00000000 00000000 00000000 00000000  ....................
000000D9AE6FBEF0:   00000000 00000000 00000000 00000000 00000000  ....................
000000D9AE6FBF04:   00000000 00000000 00000000 00000000 00000000  ....................
000000D9AE6FBF18:   00000000 00000000 00000000 00000000 00000000  ....................
000000D9AE6FBF2C:   00000000 00000000 00000000 00000000 00000000  ....................
000000D9AE6FBF40:   00000000 00000000 00000000 00000000 00000000  ....................
000000D9AE6FBF54:   00000000 00000000 00040000 00000000 00000000  ....................
000000D9AE6FBF68:   00000000 00000000 00000000 00000000 00000000  ....................
000000D9AE6FBF7C:   00000000 00000000 00000000 00000000 00000000  ....................
000000D9AE6FBF90:   00000000 00000000 00000000 00000000 00000000  ....................
000000D9AE6FBFA4:   00000000 00000000 00000000 00000000 00000000  ....................
000000D9AE6FBFB8:   00000000 00000000 00000000 00000000 00000000  ....................
000000D9AE6FBFCC:   00000000 00000000 00000000 00000020 00000000  ............... ....
000000D9AE6FBFE0:   00000000 00000000 00000000 00000000 00000000  ....................
000000D9AE6FBFF4:   00000000 00000000 be006000                    ........¾.`.


DBCC execution completed. If DBCC printed error messages, contact your system administrator.
