
PAGE: (1:2)


BUFFER:


BUF @0x00000278ECABB400

bpage = 0x00000278BE496000          bhash = 0x0000000000000000          bpageno = (1:2)
bdbid = 7                           breferences = 1                     bcputicks = 0
bsampleCount = 0                    bUse1 = 23762                       bstat = 0x9
blog = 0x15ab215a                   bnext = 0x0000000000000000          bDirtyContext = 0x0000000000000000
bstat2 = 0x0

PAGE HEADER:


Page @0x00000278BE496000

m_pageId = (1:2)                    m_headerVersion = 1                 m_type = 8
m_typeFlagBits = 0x0                m_level = 0                         m_flagBits = 0x0
m_objId (AllocUnitId.idObj) = 99    m_indexId (AllocUnitId.idInd) = 0   Metadata: AllocUnitId = 6488064
Metadata: PartitionId = 0           Metadata: IndexId = 0               Metadata: ObjectId = 99
m_prevPage = (0:0)                  m_nextPage = (0:0)                  pminlen = 90
m_slotCnt = 2                       m_freeCnt = 6                       m_freeData = 8182
m_reservedCnt = 0                   m_lsn = (34:2808:7)                 m_xactReserved = 0
m_xdesId = (0:0)                    m_ghostRecCnt = 0                   m_tornBits = 185045724
DB Frag ID = 1

Allocation Status

GAM (1:2) = ALLOCATED               SGAM (1:3) = NOT ALLOCATED          PFS (1:1) = 0x44 ALLOCATED 100_PCT_FULL
DIFF (1:6) = CHANGED                ML (1:7) = NOT MIN_LOGGED

DATA:


Memory Dump @0x000000D9AD2FA000

000000D9AD2FA000:   01080000 00000000 00000000 00005a00 00000000  ..............Z.....
000000D9AD2FA014:   00000200 63000000 0600f61f 02000000 01000000  ....c.....ö.........
000000D9AD2FA028:   22000000 f80a0000 07000000 00000000 00000000  "...ø...............
000000D9AD2FA03C:   dc92070b 00000000 00000000 00000000 00000000  Ü..................
000000D9AD2FA050:   00000000 00000000 00000000 00000000 00005e00  ..................^.
000000D9AD2FA064:   00000000 00000000 00000000 00000000 00000000  ....................
000000D9AD2FA078:   00000000 00000000 00000000 00000000 00000000  ....................
000000D9AD2FA08C:   00000000 00000000 00000000 00000000 00000000  ....................
000000D9AD2FA0A0:   00000000 00000000 00000000 00000000 00000000  ....................
000000D9AD2FA0B4:   00000000 00000000 00000000 381f0000 0000e03f  ............8.....à?
000000D9AD2FA0C8:   f7003a3a c0ffffff ffffffff ffffffff ffffffff  ÷.::Àÿÿÿÿÿÿÿÿÿÿÿÿÿÿÿ
000000D9AD2FA0DC:   ffffffff ffffffff ffffffff ffffffff ffffffff  ÿÿÿÿÿÿÿÿÿÿÿÿÿÿÿÿÿÿÿÿ
000000D9AD2FA0F0:   ffffffff ffffffff ffffffff ffffffff ffffffff  ÿÿÿÿÿÿÿÿÿÿÿÿÿÿÿÿÿÿÿÿ
000000D9AD2FA104:   ffffffff ffffffff ffffffff ffffffff ffffffff  ÿÿÿÿÿÿÿÿÿÿÿÿÿÿÿÿÿÿÿÿ
000000D9AD2FA118:   ffffffff ffffffff ffffffff ffffffff ffffffff  ÿÿÿÿÿÿÿÿÿÿÿÿÿÿÿÿÿÿÿÿ
000000D9AD2FA12C:   ffffffff ffffffff ffffffff ffffffff ffffffff  ÿÿÿÿÿÿÿÿÿÿÿÿÿÿÿÿÿÿÿÿ
000000D9AD2FA140:   ffffffff ffffffff ffffffff ffffffff ffffffff  ÿÿÿÿÿÿÿÿÿÿÿÿÿÿÿÿÿÿÿÿ
000000D9AD2FA154:   ffffffff ffffffff ffffffff ffffffff ffffffff  ÿÿÿÿÿÿÿÿÿÿÿÿÿÿÿÿÿÿÿÿ
000000D9AD2FA168:   ffffffff ffffffff ffffffff ffffffff ffffffff  ÿÿÿÿÿÿÿÿÿÿÿÿÿÿÿÿÿÿÿÿ
000000D9AD2FA17C:   ffffffff ffffffff ffffffff ffffffff ffffffff  ÿÿÿÿÿÿÿÿÿÿÿÿÿÿÿÿÿÿÿÿ
000000D9AD2FA190:   ffffffff ffffffff ffffffff ffffffff ffffffff  ÿÿÿÿÿÿÿÿÿÿÿÿÿÿÿÿÿÿÿÿ
000000D9AD2FA1A4:   ffffffff ffffffff ffffffff ffffffff ffffffff  ÿÿÿÿÿÿÿÿÿÿÿÿÿÿÿÿÿÿÿÿ
000000D9AD2FA1B8:   ffffffff ffffffff ffffffff ffffffff ffffffff  ÿÿÿÿÿÿÿÿÿÿÿÿÿÿÿÿÿÿÿÿ
000000D9AD2FA1CC:   ffffffff ffffffff ffffffff ffffffff ffffffff  ÿÿÿÿÿÿÿÿÿÿÿÿÿÿÿÿÿÿÿÿ
000000D9AD2FA1E0:   ffffffff ffffffff ffffffff ffffffff ffffffff  ÿÿÿÿÿÿÿÿÿÿÿÿÿÿÿÿÿÿÿÿ
000000D9AD2FA1F4:   ffffffff ffffffff ffffffff ffffffff ffffffff  ÿÿÿÿÿÿÿÿÿÿÿÿÿÿÿÿÿÿÿÿ
000000D9AD2FA208:   ffffffff ffffffff ffffffff ffffffff ffffffff  ÿÿÿÿÿÿÿÿÿÿÿÿÿÿÿÿÿÿÿÿ
000000D9AD2FA21C:   ffffffff ffffffff ffffffff ffffffff ffffffff  ÿÿÿÿÿÿÿÿÿÿÿÿÿÿÿÿÿÿÿÿ
000000D9AD2FA230:   ffffffff ffffffff ffffffff ffffffff ffffffff  ÿÿÿÿÿÿÿÿÿÿÿÿÿÿÿÿÿÿÿÿ
000000D9AD2FA244:   ffffffff ffffffff ffffffff ffffffff ffffffff  ÿÿÿÿÿÿÿÿÿÿÿÿÿÿÿÿÿÿÿÿ
000000D9AD2FA258:   ffffffff ffffffff ffffffff ffffffff ffffffff  ÿÿÿÿÿÿÿÿÿÿÿÿÿÿÿÿÿÿÿÿ
000000D9AD2FA26C:   ffffffff ffffffff ffffffff ffffffff ffffffff  ÿÿÿÿÿÿÿÿÿÿÿÿÿÿÿÿÿÿÿÿ
000000D9AD2FA280:   ffffffff ffffffff ffffffff ffffffff ffffffff  ÿÿÿÿÿÿÿÿÿÿÿÿÿÿÿÿÿÿÿÿ
000000D9AD2FA294:   ffffffff ffffffff ffffffff ffffffff ffffffff  ÿÿÿÿÿÿÿÿÿÿÿÿÿÿÿÿÿÿÿÿ
000000D9AD2FA2A8:   ffffffff ffffffff ffffffff ffffffff ffffffff  ÿÿÿÿÿÿÿÿÿÿÿÿÿÿÿÿÿÿÿÿ
000000D9AD2FA2BC:   ffffffff ffffffff ffffffff ffffffff ffffffff  ÿÿÿÿÿÿÿÿÿÿÿÿÿÿÿÿÿÿÿÿ
000000D9AD2FA2D0:   ffffffff ffffffff ffffffff ffffffff ffffffff  ÿÿÿÿÿÿÿÿÿÿÿÿÿÿÿÿÿÿÿÿ
000000D9AD2FA2E4:   ffffffff ffffffff ffffffff ffffffff ffffffff  ÿÿÿÿÿÿÿÿÿÿÿÿÿÿÿÿÿÿÿÿ
000000D9AD2FA2F8:   ffffffff ffffffff ffffffff ffffffff ffffffff  ÿÿÿÿÿÿÿÿÿÿÿÿÿÿÿÿÿÿÿÿ
000000D9AD2FA30C:   ffffffff ffffffff ffffffff ffffffff ffffffff  ÿÿÿÿÿÿÿÿÿÿÿÿÿÿÿÿÿÿÿÿ
000000D9AD2FA320:   ffffffff ffffffff ffffffff ffffffff ffffffff  ÿÿÿÿÿÿÿÿÿÿÿÿÿÿÿÿÿÿÿÿ
000000D9AD2FA334:   ffffffff ffffffff ffffffff ffffffff ffffffff  ÿÿÿÿÿÿÿÿÿÿÿÿÿÿÿÿÿÿÿÿ
000000D9AD2FA348:   ffffffff ffffffff ffffffff ffffffff ffffffff  ÿÿÿÿÿÿÿÿÿÿÿÿÿÿÿÿÿÿÿÿ
000000D9AD2FA35C:   ffffffff ffffffff ffffffff ffffffff ffffffff  ÿÿÿÿÿÿÿÿÿÿÿÿÿÿÿÿÿÿÿÿ
000000D9AD2FA370:   ffffffff ffffffff ffffffff ffffffff ffffffff  ÿÿÿÿÿÿÿÿÿÿÿÿÿÿÿÿÿÿÿÿ
000000D9AD2FA384:   ffffffff ffffffff ffffffff ffffffff ffffffff  ÿÿÿÿÿÿÿÿÿÿÿÿÿÿÿÿÿÿÿÿ
000000D9AD2FA398:   ffffffff ffffffff ffffffff ffffffff ffffffff  ÿÿÿÿÿÿÿÿÿÿÿÿÿÿÿÿÿÿÿÿ
000000D9AD2FA3AC:   ffffffff ffffffff ffffffff ffffffff ffffffff  ÿÿÿÿÿÿÿÿÿÿÿÿÿÿÿÿÿÿÿÿ
000000D9AD2FA3C0:   ffffffff ffffffff ffffffff ffffffff ffffffff  ÿÿÿÿÿÿÿÿÿÿÿÿÿÿÿÿÿÿÿÿ
000000D9AD2FA3D4:   ffffffff ffffffff ffffffff ffffffff ffffffff  ÿÿÿÿÿÿÿÿÿÿÿÿÿÿÿÿÿÿÿÿ
000000D9AD2FA3E8:   ffffffff ffffffff ffffffff ffffffff ffffffff  ÿÿÿÿÿÿÿÿÿÿÿÿÿÿÿÿÿÿÿÿ
000000D9AD2FA3FC:   ffffffff ffffffff ffffffff ffffffff ffffffff  ÿÿÿÿÿÿÿÿÿÿÿÿÿÿÿÿÿÿÿÿ
000000D9AD2FA410:   ffffffff ffffffff ffffffff ffffffff ffffffff  ÿÿÿÿÿÿÿÿÿÿÿÿÿÿÿÿÿÿÿÿ
000000D9AD2FA424:   ffffffff ffffffff ffffffff ffffffff ffffffff  ÿÿÿÿÿÿÿÿÿÿÿÿÿÿÿÿÿÿÿÿ
000000D9AD2FA438:   ffffffff ffffffff ffffffff ffffffff ffffffff  ÿÿÿÿÿÿÿÿÿÿÿÿÿÿÿÿÿÿÿÿ
000000D9AD2FA44C:   ffffffff ffffffff ffffffff ffffffff ffffffff  ÿÿÿÿÿÿÿÿÿÿÿÿÿÿÿÿÿÿÿÿ
000000D9AD2FA460:   ffffffff ffffffff ffffffff ffffffff ffffffff  ÿÿÿÿÿÿÿÿÿÿÿÿÿÿÿÿÿÿÿÿ
000000D9AD2FA474:   ffffffff ffffffff ffffffff ffffffff ffffffff  ÿÿÿÿÿÿÿÿÿÿÿÿÿÿÿÿÿÿÿÿ
000000D9AD2FA488:   ffffffff ffffffff ffffffff ffffffff ffffffff  ÿÿÿÿÿÿÿÿÿÿÿÿÿÿÿÿÿÿÿÿ
000000D9AD2FA49C:   ffffffff ffffffff ffffffff ffffffff ffffffff  ÿÿÿÿÿÿÿÿÿÿÿÿÿÿÿÿÿÿÿÿ
000000D9AD2FA4B0:   ffffffff ffffffff ffffffff ffffffff ffffffff  ÿÿÿÿÿÿÿÿÿÿÿÿÿÿÿÿÿÿÿÿ
000000D9AD2FA4C4:   ffffffff ffffffff ffffffff ffffffff ffffffff  ÿÿÿÿÿÿÿÿÿÿÿÿÿÿÿÿÿÿÿÿ
000000D9AD2FA4D8:   ffffffff ffffffff ffffffff ffffffff ffffffff  ÿÿÿÿÿÿÿÿÿÿÿÿÿÿÿÿÿÿÿÿ
000000D9AD2FA4EC:   ffffffff ffffffff ffffffff ffffffff ffffffff  ÿÿÿÿÿÿÿÿÿÿÿÿÿÿÿÿÿÿÿÿ
000000D9AD2FA500:   ffffffff ffffffff ffffffff ffffffff ffffffff  ÿÿÿÿÿÿÿÿÿÿÿÿÿÿÿÿÿÿÿÿ
000000D9AD2FA514:   ffffffff ffffffff ffffffff ffffffff ffffffff  ÿÿÿÿÿÿÿÿÿÿÿÿÿÿÿÿÿÿÿÿ
000000D9AD2FA528:   ffffffff ffffffff ffffffff ffffffff ffffffff  ÿÿÿÿÿÿÿÿÿÿÿÿÿÿÿÿÿÿÿÿ
000000D9AD2FA53C:   ffffffff ffffffff ffffffff ffffffff ffffffff  ÿÿÿÿÿÿÿÿÿÿÿÿÿÿÿÿÿÿÿÿ
000000D9AD2FA550:   ffffffff ffffffff ffffffff ffffffff ffffffff  ÿÿÿÿÿÿÿÿÿÿÿÿÿÿÿÿÿÿÿÿ
000000D9AD2FA564:   ffffffff ffffffff ffffffff ffffffff ffffffff  ÿÿÿÿÿÿÿÿÿÿÿÿÿÿÿÿÿÿÿÿ
000000D9AD2FA578:   ffffffff ffffffff ffffffff ffffffff ffffffff  ÿÿÿÿÿÿÿÿÿÿÿÿÿÿÿÿÿÿÿÿ
000000D9AD2FA58C:   ffffffff ffffffff ffffffff ffffffff ffffffff  ÿÿÿÿÿÿÿÿÿÿÿÿÿÿÿÿÿÿÿÿ
000000D9AD2FA5A0:   ffffffff ffffffff ffffffff ffffffff ffffffff  ÿÿÿÿÿÿÿÿÿÿÿÿÿÿÿÿÿÿÿÿ
000000D9AD2FA5B4:   ffffffff ffffffff ffffffff ffffffff ffffffff  ÿÿÿÿÿÿÿÿÿÿÿÿÿÿÿÿÿÿÿÿ
000000D9AD2FA5C8:   ffffffff ffffffff ffffffff ffffffff ffffffff  ÿÿÿÿÿÿÿÿÿÿÿÿÿÿÿÿÿÿÿÿ
000000D9AD2FA5DC:   ffffffff ffffffff ffffffff ffffffff ffffffff  ÿÿÿÿÿÿÿÿÿÿÿÿÿÿÿÿÿÿÿÿ
000000D9AD2FA5F0:   ffffffff ffffffff ffffffff ffffffff ffffffff  ÿÿÿÿÿÿÿÿÿÿÿÿÿÿÿÿÿÿÿÿ
000000D9AD2FA604:   ffffffff ffffffff ffffffff ffffffff ffffffff  ÿÿÿÿÿÿÿÿÿÿÿÿÿÿÿÿÿÿÿÿ
000000D9AD2FA618:   ffffffff ffffffff ffffffff ffffffff ffffffff  ÿÿÿÿÿÿÿÿÿÿÿÿÿÿÿÿÿÿÿÿ
000000D9AD2FA62C:   ffffffff ffffffff ffffffff ffffffff ffffffff  ÿÿÿÿÿÿÿÿÿÿÿÿÿÿÿÿÿÿÿÿ
000000D9AD2FA640:   ffffffff ffffffff ffffffff ffffffff ffffffff  ÿÿÿÿÿÿÿÿÿÿÿÿÿÿÿÿÿÿÿÿ
000000D9AD2FA654:   ffffffff ffffffff ffffffff ffffffff ffffffff  ÿÿÿÿÿÿÿÿÿÿÿÿÿÿÿÿÿÿÿÿ
000000D9AD2FA668:   ffffffff ffffffff ffffffff ffffffff ffffffff  ÿÿÿÿÿÿÿÿÿÿÿÿÿÿÿÿÿÿÿÿ
000000D9AD2FA67C:   ffffffff ffffffff ffffffff ffffffff ffffffff  ÿÿÿÿÿÿÿÿÿÿÿÿÿÿÿÿÿÿÿÿ
000000D9AD2FA690:   ffffffff ffffffff ffffffff ffffffff ffffffff  ÿÿÿÿÿÿÿÿÿÿÿÿÿÿÿÿÿÿÿÿ
000000D9AD2FA6A4:   ffffffff ffffffff ffffffff ffffffff ffffffff  ÿÿÿÿÿÿÿÿÿÿÿÿÿÿÿÿÿÿÿÿ
000000D9AD2FA6B8:   ffffffff ffffffff ffffffff ffffffff ffffffff  ÿÿÿÿÿÿÿÿÿÿÿÿÿÿÿÿÿÿÿÿ
000000D9AD2FA6CC:   ffffffff ffffffff ffffffff ffffffff ffffffff  ÿÿÿÿÿÿÿÿÿÿÿÿÿÿÿÿÿÿÿÿ
000000D9AD2FA6E0:   ffffffff ffffffff ffffffff ffffffff ffffffff  ÿÿÿÿÿÿÿÿÿÿÿÿÿÿÿÿÿÿÿÿ
000000D9AD2FA6F4:   ffffffff ffffffff ffffffff ffffffff ffffffff  ÿÿÿÿÿÿÿÿÿÿÿÿÿÿÿÿÿÿÿÿ
000000D9AD2FA708:   ffffffff ffffffff ffffffff ffffffff ffffffff  ÿÿÿÿÿÿÿÿÿÿÿÿÿÿÿÿÿÿÿÿ
000000D9AD2FA71C:   ffffffff ffffffff ffffffff ffffffff ffffffff  ÿÿÿÿÿÿÿÿÿÿÿÿÿÿÿÿÿÿÿÿ
000000D9AD2FA730:   ffffffff ffffffff ffffffff ffffffff ffffffff  ÿÿÿÿÿÿÿÿÿÿÿÿÿÿÿÿÿÿÿÿ
000000D9AD2FA744:   ffffffff ffffffff ffffffff ffffffff ffffffff  ÿÿÿÿÿÿÿÿÿÿÿÿÿÿÿÿÿÿÿÿ
000000D9AD2FA758:   ffffffff ffffffff ffffffff ffffffff ffffffff  ÿÿÿÿÿÿÿÿÿÿÿÿÿÿÿÿÿÿÿÿ
000000D9AD2FA76C:   ffffffff ffffffff ffffffff ffffffff ffffffff  ÿÿÿÿÿÿÿÿÿÿÿÿÿÿÿÿÿÿÿÿ
000000D9AD2FA780:   ffffffff ffffffff ffffffff ffffffff ffffffff  ÿÿÿÿÿÿÿÿÿÿÿÿÿÿÿÿÿÿÿÿ
000000D9AD2FA794:   ffffffff ffffffff ffffffff ffffffff ffffffff  ÿÿÿÿÿÿÿÿÿÿÿÿÿÿÿÿÿÿÿÿ
000000D9AD2FA7A8:   ffffffff ffffffff ffffffff ffffffff ffffffff  ÿÿÿÿÿÿÿÿÿÿÿÿÿÿÿÿÿÿÿÿ
000000D9AD2FA7BC:   ffffffff ffffffff ffffffff ffffffff ffffffff  ÿÿÿÿÿÿÿÿÿÿÿÿÿÿÿÿÿÿÿÿ
000000D9AD2FA7D0:   ffffffff ffffffff ffffffff ffffffff ffffffff  ÿÿÿÿÿÿÿÿÿÿÿÿÿÿÿÿÿÿÿÿ
000000D9AD2FA7E4:   ffffffff ffffffff ffffffff ffffffff ffffffff  ÿÿÿÿÿÿÿÿÿÿÿÿÿÿÿÿÿÿÿÿ
000000D9AD2FA7F8:   ffffffff ffffffff ffffffff ffffffff ffffffff  ÿÿÿÿÿÿÿÿÿÿÿÿÿÿÿÿÿÿÿÿ
000000D9AD2FA80C:   ffffffff ffffffff ffffffff ffffffff ffffffff  ÿÿÿÿÿÿÿÿÿÿÿÿÿÿÿÿÿÿÿÿ
000000D9AD2FA820:   ffffffff ffffffff ffffffff ffffffff ffffffff  ÿÿÿÿÿÿÿÿÿÿÿÿÿÿÿÿÿÿÿÿ
000000D9AD2FA834:   ffffffff ffffffff ffffffff ffffffff ffffffff  ÿÿÿÿÿÿÿÿÿÿÿÿÿÿÿÿÿÿÿÿ
000000D9AD2FA848:   ffffffff ffffffff ffffffff ffffffff ffffffff  ÿÿÿÿÿÿÿÿÿÿÿÿÿÿÿÿÿÿÿÿ
000000D9AD2FA85C:   ffffffff ffffffff ffffffff ffffffff ffffffff  ÿÿÿÿÿÿÿÿÿÿÿÿÿÿÿÿÿÿÿÿ
000000D9AD2FA870:   ffffffff ffffffff ffffffff ffffffff ffffffff  ÿÿÿÿÿÿÿÿÿÿÿÿÿÿÿÿÿÿÿÿ
000000D9AD2FA884:   ffffffff ffffffff ffffffff ffffffff ffffffff  ÿÿÿÿÿÿÿÿÿÿÿÿÿÿÿÿÿÿÿÿ
000000D9AD2FA898:   ffffffff ffffffff ffffffff ffffffff ffffffff  ÿÿÿÿÿÿÿÿÿÿÿÿÿÿÿÿÿÿÿÿ
000000D9AD2FA8AC:   ffffffff ffffffff ffffffff ffffffff ffffffff  ÿÿÿÿÿÿÿÿÿÿÿÿÿÿÿÿÿÿÿÿ
000000D9AD2FA8C0:   ffffffff ffffffff ffffffff ffffffff ffffffff  ÿÿÿÿÿÿÿÿÿÿÿÿÿÿÿÿÿÿÿÿ
000000D9AD2FA8D4:   ffffffff ffffffff ffffffff ffffffff ffffffff  ÿÿÿÿÿÿÿÿÿÿÿÿÿÿÿÿÿÿÿÿ
000000D9AD2FA8E8:   ffffffff ffffffff ffffffff ffffffff ffffffff  ÿÿÿÿÿÿÿÿÿÿÿÿÿÿÿÿÿÿÿÿ
000000D9AD2FA8FC:   ffffffff ffffffff ffffffff ffffffff ffffffff  ÿÿÿÿÿÿÿÿÿÿÿÿÿÿÿÿÿÿÿÿ
000000D9AD2FA910:   ffffffff ffffffff ffffffff ffffffff ffffffff  ÿÿÿÿÿÿÿÿÿÿÿÿÿÿÿÿÿÿÿÿ
000000D9AD2FA924:   ffffffff ffffffff ffffffff ffffffff ffffffff  ÿÿÿÿÿÿÿÿÿÿÿÿÿÿÿÿÿÿÿÿ
000000D9AD2FA938:   ffffffff ffffffff ffffffff ffffffff ffffffff  ÿÿÿÿÿÿÿÿÿÿÿÿÿÿÿÿÿÿÿÿ
000000D9AD2FA94C:   ffffffff ffffffff ffffffff ffffffff ffffffff  ÿÿÿÿÿÿÿÿÿÿÿÿÿÿÿÿÿÿÿÿ
000000D9AD2FA960:   ffffffff ffffffff ffffffff ffffffff ffffffff  ÿÿÿÿÿÿÿÿÿÿÿÿÿÿÿÿÿÿÿÿ
000000D9AD2FA974:   ffffffff ffffffff ffffffff ffffffff ffffffff  ÿÿÿÿÿÿÿÿÿÿÿÿÿÿÿÿÿÿÿÿ
000000D9AD2FA988:   ffffffff ffffffff ffffffff ffffffff ffffffff  ÿÿÿÿÿÿÿÿÿÿÿÿÿÿÿÿÿÿÿÿ
000000D9AD2FA99C:   ffffffff ffffffff ffffffff ffffffff ffffffff  ÿÿÿÿÿÿÿÿÿÿÿÿÿÿÿÿÿÿÿÿ
000000D9AD2FA9B0:   ffffffff ffffffff ffffffff ffffffff ffffffff  ÿÿÿÿÿÿÿÿÿÿÿÿÿÿÿÿÿÿÿÿ
000000D9AD2FA9C4:   ffffffff ffffffff ffffffff ffffffff ffffffff  ÿÿÿÿÿÿÿÿÿÿÿÿÿÿÿÿÿÿÿÿ
000000D9AD2FA9D8:   ffffffff ffffffff ffffffff ffffffff ffffffff  ÿÿÿÿÿÿÿÿÿÿÿÿÿÿÿÿÿÿÿÿ
000000D9AD2FA9EC:   ffffffff ffffffff ffffffff ffffffff ffffffff  ÿÿÿÿÿÿÿÿÿÿÿÿÿÿÿÿÿÿÿÿ
000000D9AD2FAA00:   ffffffff ffffffff ffffffff ffffffff ffffffff  ÿÿÿÿÿÿÿÿÿÿÿÿÿÿÿÿÿÿÿÿ
000000D9AD2FAA14:   ffffffff ffffffff ffffffff ffffffff ffffffff  ÿÿÿÿÿÿÿÿÿÿÿÿÿÿÿÿÿÿÿÿ
000000D9AD2FAA28:   ffffffff ffffffff ffffffff ffffffff ffffffff  ÿÿÿÿÿÿÿÿÿÿÿÿÿÿÿÿÿÿÿÿ
000000D9AD2FAA3C:   ffffffff ffffffff ffffffff ffffffff ffffffff  ÿÿÿÿÿÿÿÿÿÿÿÿÿÿÿÿÿÿÿÿ
000000D9AD2FAA50:   ffffffff ffffffff ffffffff ffffffff ffffffff  ÿÿÿÿÿÿÿÿÿÿÿÿÿÿÿÿÿÿÿÿ
000000D9AD2FAA64:   ffffffff ffffffff ffffffff ffffffff ffffffff  ÿÿÿÿÿÿÿÿÿÿÿÿÿÿÿÿÿÿÿÿ
000000D9AD2FAA78:   ffffffff ffffffff ffffffff ffffffff ffffffff  ÿÿÿÿÿÿÿÿÿÿÿÿÿÿÿÿÿÿÿÿ
000000D9AD2FAA8C:   ffffffff ffffffff ffffffff ffffffff ffffffff  ÿÿÿÿÿÿÿÿÿÿÿÿÿÿÿÿÿÿÿÿ
000000D9AD2FAAA0:   ffffffff ffffffff ffffffff ffffffff ffffffff  ÿÿÿÿÿÿÿÿÿÿÿÿÿÿÿÿÿÿÿÿ
000000D9AD2FAAB4:   ffffffff ffffffff ffffffff ffffffff ffffffff  ÿÿÿÿÿÿÿÿÿÿÿÿÿÿÿÿÿÿÿÿ
000000D9AD2FAAC8:   ffffffff ffffffff ffffffff ffffffff ffffffff  ÿÿÿÿÿÿÿÿÿÿÿÿÿÿÿÿÿÿÿÿ
000000D9AD2FAADC:   ffffffff ffffffff ffffffff ffffffff ffffffff  ÿÿÿÿÿÿÿÿÿÿÿÿÿÿÿÿÿÿÿÿ
000000D9AD2FAAF0:   ffffffff ffffffff ffffffff ffffffff ffffffff  ÿÿÿÿÿÿÿÿÿÿÿÿÿÿÿÿÿÿÿÿ
000000D9AD2FAB04:   ffffffff ffffffff ffffffff ffffffff ffffffff  ÿÿÿÿÿÿÿÿÿÿÿÿÿÿÿÿÿÿÿÿ
000000D9AD2FAB18:   ffffffff ffffffff ffffffff ffffffff ffffffff  ÿÿÿÿÿÿÿÿÿÿÿÿÿÿÿÿÿÿÿÿ
000000D9AD2FAB2C:   ffffffff ffffffff ffffffff ffffffff ffffffff  ÿÿÿÿÿÿÿÿÿÿÿÿÿÿÿÿÿÿÿÿ
000000D9AD2FAB40:   ffffffff ffffffff ffffffff ffffffff ffffffff  ÿÿÿÿÿÿÿÿÿÿÿÿÿÿÿÿÿÿÿÿ
000000D9AD2FAB54:   ffffffff ffffffff ffffffff ffffffff ffffffff  ÿÿÿÿÿÿÿÿÿÿÿÿÿÿÿÿÿÿÿÿ
000000D9AD2FAB68:   ffffffff ffffffff ffffffff ffffffff ffffffff  ÿÿÿÿÿÿÿÿÿÿÿÿÿÿÿÿÿÿÿÿ
000000D9AD2FAB7C:   ffffffff ffffffff ffffffff ffffffff ffffffff  ÿÿÿÿÿÿÿÿÿÿÿÿÿÿÿÿÿÿÿÿ
000000D9AD2FAB90:   ffffffff ffffffff ffffffff ffffffff ffffffff  ÿÿÿÿÿÿÿÿÿÿÿÿÿÿÿÿÿÿÿÿ
000000D9AD2FABA4:   ffffffff ffffffff ffffffff ffffffff ffffffff  ÿÿÿÿÿÿÿÿÿÿÿÿÿÿÿÿÿÿÿÿ
000000D9AD2FABB8:   ffffffff ffffffff ffffffff ffffffff ffffffff  ÿÿÿÿÿÿÿÿÿÿÿÿÿÿÿÿÿÿÿÿ
000000D9AD2FABCC:   ffffffff ffffffff ffffffff ffffffff ffffffff  ÿÿÿÿÿÿÿÿÿÿÿÿÿÿÿÿÿÿÿÿ
000000D9AD2FABE0:   ffffffff ffffffff ffffffff ffffffff ffffffff  ÿÿÿÿÿÿÿÿÿÿÿÿÿÿÿÿÿÿÿÿ
000000D9AD2FABF4:   ffffffff ffffffff ffffffff ffffffff ffffffff  ÿÿÿÿÿÿÿÿÿÿÿÿÿÿÿÿÿÿÿÿ
000000D9AD2FAC08:   ffffffff ffffffff ffffffff ffffffff ffffffff  ÿÿÿÿÿÿÿÿÿÿÿÿÿÿÿÿÿÿÿÿ
000000D9AD2FAC1C:   ffffffff ffffffff ffffffff ffffffff ffffffff  ÿÿÿÿÿÿÿÿÿÿÿÿÿÿÿÿÿÿÿÿ
000000D9AD2FAC30:   ffffffff ffffffff ffffffff ffffffff ffffffff  ÿÿÿÿÿÿÿÿÿÿÿÿÿÿÿÿÿÿÿÿ
000000D9AD2FAC44:   ffffffff ffffffff ffffffff ffffffff ffffffff  ÿÿÿÿÿÿÿÿÿÿÿÿÿÿÿÿÿÿÿÿ
000000D9AD2FAC58:   ffffffff ffffffff ffffffff ffffffff ffffffff  ÿÿÿÿÿÿÿÿÿÿÿÿÿÿÿÿÿÿÿÿ
000000D9AD2FAC6C:   ffffffff ffffffff ffffffff ffffffff ffffffff  ÿÿÿÿÿÿÿÿÿÿÿÿÿÿÿÿÿÿÿÿ
000000D9AD2FAC80:   ffffffff ffffffff ffffffff ffffffff ffffffff  ÿÿÿÿÿÿÿÿÿÿÿÿÿÿÿÿÿÿÿÿ
000000D9AD2FAC94:   ffffffff ffffffff ffffffff ffffffff ffffffff  ÿÿÿÿÿÿÿÿÿÿÿÿÿÿÿÿÿÿÿÿ
000000D9AD2FACA8:   ffffffff ffffffff ffffffff ffffffff ffffffff  ÿÿÿÿÿÿÿÿÿÿÿÿÿÿÿÿÿÿÿÿ
000000D9AD2FACBC:   ffffffff ffffffff ffffffff ffffffff ffffffff  ÿÿÿÿÿÿÿÿÿÿÿÿÿÿÿÿÿÿÿÿ
000000D9AD2FACD0:   ffffffff ffffffff ffffffff ffffffff ffffffff  ÿÿÿÿÿÿÿÿÿÿÿÿÿÿÿÿÿÿÿÿ
000000D9AD2FACE4:   ffffffff ffffffff ffffffff ffffffff ffffffff  ÿÿÿÿÿÿÿÿÿÿÿÿÿÿÿÿÿÿÿÿ
000000D9AD2FACF8:   ffffffff ffffffff ffffffff ffffffff ffffffff  ÿÿÿÿÿÿÿÿÿÿÿÿÿÿÿÿÿÿÿÿ
000000D9AD2FAD0C:   ffffffff ffffffff ffffffff ffffffff ffffffff  ÿÿÿÿÿÿÿÿÿÿÿÿÿÿÿÿÿÿÿÿ
000000D9AD2FAD20:   ffffffff ffffffff ffffffff ffffffff ffffffff  ÿÿÿÿÿÿÿÿÿÿÿÿÿÿÿÿÿÿÿÿ
000000D9AD2FAD34:   ffffffff ffffffff ffffffff ffffffff ffffffff  ÿÿÿÿÿÿÿÿÿÿÿÿÿÿÿÿÿÿÿÿ
000000D9AD2FAD48:   ffffffff ffffffff ffffffff ffffffff ffffffff  ÿÿÿÿÿÿÿÿÿÿÿÿÿÿÿÿÿÿÿÿ
000000D9AD2FAD5C:   ffffffff ffffffff ffffffff ffffffff ffffffff  ÿÿÿÿÿÿÿÿÿÿÿÿÿÿÿÿÿÿÿÿ
000000D9AD2FAD70:   ffffffff ffffffff ffffffff ffffffff ffffffff  ÿÿÿÿÿÿÿÿÿÿÿÿÿÿÿÿÿÿÿÿ
000000D9AD2FAD84:   ffffffff ffffffff ffffffff ffffffff ffffffff  ÿÿÿÿÿÿÿÿÿÿÿÿÿÿÿÿÿÿÿÿ
000000D9AD2FAD98:   ffffffff ffffffff ffffffff ffffffff ffffffff  ÿÿÿÿÿÿÿÿÿÿÿÿÿÿÿÿÿÿÿÿ
000000D9AD2FADAC:   ffffffff ffffffff ffffffff ffffffff ffffffff  ÿÿÿÿÿÿÿÿÿÿÿÿÿÿÿÿÿÿÿÿ
000000D9AD2FADC0:   ffffffff ffffffff ffffffff ffffffff ffffffff  ÿÿÿÿÿÿÿÿÿÿÿÿÿÿÿÿÿÿÿÿ
000000D9AD2FADD4:   ffffffff ffffffff ffffffff ffffffff ffffffff  ÿÿÿÿÿÿÿÿÿÿÿÿÿÿÿÿÿÿÿÿ
000000D9AD2FADE8:   ffffffff ffffffff ffffffff ffffffff ffffffff  ÿÿÿÿÿÿÿÿÿÿÿÿÿÿÿÿÿÿÿÿ
000000D9AD2FADFC:   ffffffff ffffffff ffffffff ffffffff ffffffff  ÿÿÿÿÿÿÿÿÿÿÿÿÿÿÿÿÿÿÿÿ
000000D9AD2FAE10:   ffffffff ffffffff ffffffff ffffffff ffffffff  ÿÿÿÿÿÿÿÿÿÿÿÿÿÿÿÿÿÿÿÿ
000000D9AD2FAE24:   ffffffff ffffffff ffffffff ffffffff ffffffff  ÿÿÿÿÿÿÿÿÿÿÿÿÿÿÿÿÿÿÿÿ
000000D9AD2FAE38:   ffffffff ffffffff ffffffff ffffffff ffffffff  ÿÿÿÿÿÿÿÿÿÿÿÿÿÿÿÿÿÿÿÿ
000000D9AD2FAE4C:   ffffffff ffffffff ffffffff ffffffff ffffffff  ÿÿÿÿÿÿÿÿÿÿÿÿÿÿÿÿÿÿÿÿ
000000D9AD2FAE60:   ffffffff ffffffff ffffffff ffffffff ffffffff  ÿÿÿÿÿÿÿÿÿÿÿÿÿÿÿÿÿÿÿÿ
000000D9AD2FAE74:   ffffffff ffffffff ffffffff ffffffff ffffffff  ÿÿÿÿÿÿÿÿÿÿÿÿÿÿÿÿÿÿÿÿ
000000D9AD2FAE88:   ffffffff ffffffff ffffffff ffffffff ffffffff  ÿÿÿÿÿÿÿÿÿÿÿÿÿÿÿÿÿÿÿÿ
000000D9AD2FAE9C:   ffffffff ffffffff ffffffff ffffffff ffffffff  ÿÿÿÿÿÿÿÿÿÿÿÿÿÿÿÿÿÿÿÿ
000000D9AD2FAEB0:   ffffffff ffffffff ffffffff ffffffff ffffffff  ÿÿÿÿÿÿÿÿÿÿÿÿÿÿÿÿÿÿÿÿ
000000D9AD2FAEC4:   ffffffff ffffffff ffffffff ffffffff ffffffff  ÿÿÿÿÿÿÿÿÿÿÿÿÿÿÿÿÿÿÿÿ
000000D9AD2FAED8:   ffffffff ffffffff ffffffff ffffffff ffffffff  ÿÿÿÿÿÿÿÿÿÿÿÿÿÿÿÿÿÿÿÿ
000000D9AD2FAEEC:   ffffffff ffffffff ffffffff ffffffff ffffffff  ÿÿÿÿÿÿÿÿÿÿÿÿÿÿÿÿÿÿÿÿ
000000D9AD2FAF00:   ffffffff ffffffff ffffffff ffffffff ffffffff  ÿÿÿÿÿÿÿÿÿÿÿÿÿÿÿÿÿÿÿÿ
000000D9AD2FAF14:   ffffffff ffffffff ffffffff ffffffff ffffffff  ÿÿÿÿÿÿÿÿÿÿÿÿÿÿÿÿÿÿÿÿ
000000D9AD2FAF28:   ffffffff ffffffff ffffffff ffffffff ffffffff  ÿÿÿÿÿÿÿÿÿÿÿÿÿÿÿÿÿÿÿÿ
000000D9AD2FAF3C:   ffffffff ffffffff ffffffff ffffffff ffffffff  ÿÿÿÿÿÿÿÿÿÿÿÿÿÿÿÿÿÿÿÿ
000000D9AD2FAF50:   ffffffff ffffffff ffffffff ffffffff ffffffff  ÿÿÿÿÿÿÿÿÿÿÿÿÿÿÿÿÿÿÿÿ
000000D9AD2FAF64:   ffffffff ffffffff ffffffff ffffffff ffffffff  ÿÿÿÿÿÿÿÿÿÿÿÿÿÿÿÿÿÿÿÿ
000000D9AD2FAF78:   ffffffff ffffffff ffffffff ffffffff ffffffff  ÿÿÿÿÿÿÿÿÿÿÿÿÿÿÿÿÿÿÿÿ
000000D9AD2FAF8C:   ffffffff ffffffff ffffffff ffffffff ffffffff  ÿÿÿÿÿÿÿÿÿÿÿÿÿÿÿÿÿÿÿÿ
000000D9AD2FAFA0:   ffffffff ffffffff ffffffff ffffffff ffffffff  ÿÿÿÿÿÿÿÿÿÿÿÿÿÿÿÿÿÿÿÿ
000000D9AD2FAFB4:   ffffffff ffffffff ffffffff ffffffff ffffffff  ÿÿÿÿÿÿÿÿÿÿÿÿÿÿÿÿÿÿÿÿ
000000D9AD2FAFC8:   ffffffff ffffffff ffffffff ffffffff ffffffff  ÿÿÿÿÿÿÿÿÿÿÿÿÿÿÿÿÿÿÿÿ
000000D9AD2FAFDC:   ffffffff ffffffff ffffffff ffffffff ffffffff  ÿÿÿÿÿÿÿÿÿÿÿÿÿÿÿÿÿÿÿÿ
000000D9AD2FAFF0:   ffffffff ffffffff ffffffff ffffffff ffffffff  ÿÿÿÿÿÿÿÿÿÿÿÿÿÿÿÿÿÿÿÿ
000000D9AD2FB004:   ffffffff ffffffff ffffffff ffffffff ffffffff  ÿÿÿÿÿÿÿÿÿÿÿÿÿÿÿÿÿÿÿÿ
000000D9AD2FB018:   ffffffff ffffffff ffffffff ffffffff ffffffff  ÿÿÿÿÿÿÿÿÿÿÿÿÿÿÿÿÿÿÿÿ
000000D9AD2FB02C:   ffffffff ffffffff ffffffff ffffffff ffffffff  ÿÿÿÿÿÿÿÿÿÿÿÿÿÿÿÿÿÿÿÿ
000000D9AD2FB040:   ffffffff ffffffff ffffffff ffffffff ffffffff  ÿÿÿÿÿÿÿÿÿÿÿÿÿÿÿÿÿÿÿÿ
000000D9AD2FB054:   ffffffff ffffffff ffffffff ffffffff ffffffff  ÿÿÿÿÿÿÿÿÿÿÿÿÿÿÿÿÿÿÿÿ
000000D9AD2FB068:   ffffffff ffffffff ffffffff ffffffff ffffffff  ÿÿÿÿÿÿÿÿÿÿÿÿÿÿÿÿÿÿÿÿ
000000D9AD2FB07C:   ffffffff ffffffff ffffffff ffffffff ffffffff  ÿÿÿÿÿÿÿÿÿÿÿÿÿÿÿÿÿÿÿÿ
000000D9AD2FB090:   ffffffff ffffffff ffffffff ffffffff ffffffff  ÿÿÿÿÿÿÿÿÿÿÿÿÿÿÿÿÿÿÿÿ
000000D9AD2FB0A4:   ffffffff ffffffff ffffffff ffffffff ffffffff  ÿÿÿÿÿÿÿÿÿÿÿÿÿÿÿÿÿÿÿÿ
000000D9AD2FB0B8:   ffffffff ffffffff ffffffff ffffffff ffffffff  ÿÿÿÿÿÿÿÿÿÿÿÿÿÿÿÿÿÿÿÿ
000000D9AD2FB0CC:   ffffffff ffffffff ffffffff ffffffff ffffffff  ÿÿÿÿÿÿÿÿÿÿÿÿÿÿÿÿÿÿÿÿ
000000D9AD2FB0E0:   ffffffff ffffffff ffffffff ffffffff ffffffff  ÿÿÿÿÿÿÿÿÿÿÿÿÿÿÿÿÿÿÿÿ
000000D9AD2FB0F4:   ffffffff ffffffff ffffffff ffffffff ffffffff  ÿÿÿÿÿÿÿÿÿÿÿÿÿÿÿÿÿÿÿÿ
000000D9AD2FB108:   ffffffff ffffffff ffffffff ffffffff ffffffff  ÿÿÿÿÿÿÿÿÿÿÿÿÿÿÿÿÿÿÿÿ
000000D9AD2FB11C:   ffffffff ffffffff ffffffff ffffffff ffffffff  ÿÿÿÿÿÿÿÿÿÿÿÿÿÿÿÿÿÿÿÿ
000000D9AD2FB130:   ffffffff ffffffff ffffffff ffffffff ffffffff  ÿÿÿÿÿÿÿÿÿÿÿÿÿÿÿÿÿÿÿÿ
000000D9AD2FB144:   ffffffff ffffffff ffffffff ffffffff ffffffff  ÿÿÿÿÿÿÿÿÿÿÿÿÿÿÿÿÿÿÿÿ
000000D9AD2FB158:   ffffffff ffffffff ffffffff ffffffff ffffffff  ÿÿÿÿÿÿÿÿÿÿÿÿÿÿÿÿÿÿÿÿ
000000D9AD2FB16C:   ffffffff ffffffff ffffffff ffffffff ffffffff  ÿÿÿÿÿÿÿÿÿÿÿÿÿÿÿÿÿÿÿÿ
000000D9AD2FB180:   ffffffff ffffffff ffffffff ffffffff ffffffff  ÿÿÿÿÿÿÿÿÿÿÿÿÿÿÿÿÿÿÿÿ
000000D9AD2FB194:   ffffffff ffffffff ffffffff ffffffff ffffffff  ÿÿÿÿÿÿÿÿÿÿÿÿÿÿÿÿÿÿÿÿ
000000D9AD2FB1A8:   ffffffff ffffffff ffffffff ffffffff ffffffff  ÿÿÿÿÿÿÿÿÿÿÿÿÿÿÿÿÿÿÿÿ
000000D9AD2FB1BC:   ffffffff ffffffff ffffffff ffffffff ffffffff  ÿÿÿÿÿÿÿÿÿÿÿÿÿÿÿÿÿÿÿÿ
000000D9AD2FB1D0:   ffffffff ffffffff ffffffff ffffffff ffffffff  ÿÿÿÿÿÿÿÿÿÿÿÿÿÿÿÿÿÿÿÿ
000000D9AD2FB1E4:   ffffffff ffffffff ffffffff ffffffff ffffffff  ÿÿÿÿÿÿÿÿÿÿÿÿÿÿÿÿÿÿÿÿ
000000D9AD2FB1F8:   ffffffff ffffffff ffffffff ffffffff ffffffff  ÿÿÿÿÿÿÿÿÿÿÿÿÿÿÿÿÿÿÿÿ
000000D9AD2FB20C:   ffffffff ffffffff ffffffff ffffffff ffffffff  ÿÿÿÿÿÿÿÿÿÿÿÿÿÿÿÿÿÿÿÿ
000000D9AD2FB220:   ffffffff ffffffff ffffffff ffffffff ffffffff  ÿÿÿÿÿÿÿÿÿÿÿÿÿÿÿÿÿÿÿÿ
000000D9AD2FB234:   ffffffff ffffffff ffffffff ffffffff ffffffff  ÿÿÿÿÿÿÿÿÿÿÿÿÿÿÿÿÿÿÿÿ
000000D9AD2FB248:   ffffffff ffffffff ffffffff ffffffff ffffffff  ÿÿÿÿÿÿÿÿÿÿÿÿÿÿÿÿÿÿÿÿ
000000D9AD2FB25C:   ffffffff ffffffff ffffffff ffffffff ffffffff  ÿÿÿÿÿÿÿÿÿÿÿÿÿÿÿÿÿÿÿÿ
000000D9AD2FB270:   ffffffff ffffffff ffffffff ffffffff ffffffff  ÿÿÿÿÿÿÿÿÿÿÿÿÿÿÿÿÿÿÿÿ
000000D9AD2FB284:   ffffffff ffffffff ffffffff ffffffff ffffffff  ÿÿÿÿÿÿÿÿÿÿÿÿÿÿÿÿÿÿÿÿ
000000D9AD2FB298:   ffffffff ffffffff ffffffff ffffffff ffffffff  ÿÿÿÿÿÿÿÿÿÿÿÿÿÿÿÿÿÿÿÿ
000000D9AD2FB2AC:   ffffffff ffffffff ffffffff ffffffff ffffffff  ÿÿÿÿÿÿÿÿÿÿÿÿÿÿÿÿÿÿÿÿ
000000D9AD2FB2C0:   ffffffff ffffffff ffffffff ffffffff ffffffff  ÿÿÿÿÿÿÿÿÿÿÿÿÿÿÿÿÿÿÿÿ
000000D9AD2FB2D4:   ffffffff ffffffff ffffffff ffffffff ffffffff  ÿÿÿÿÿÿÿÿÿÿÿÿÿÿÿÿÿÿÿÿ
000000D9AD2FB2E8:   ffffffff ffffffff ffffffff ffffffff ffffffff  ÿÿÿÿÿÿÿÿÿÿÿÿÿÿÿÿÿÿÿÿ
000000D9AD2FB2FC:   ffffffff ffffffff ffffffff ffffffff ffffffff  ÿÿÿÿÿÿÿÿÿÿÿÿÿÿÿÿÿÿÿÿ
000000D9AD2FB310:   ffffffff ffffffff ffffffff ffffffff ffffffff  ÿÿÿÿÿÿÿÿÿÿÿÿÿÿÿÿÿÿÿÿ
000000D9AD2FB324:   ffffffff ffffffff ffffffff ffffffff ffffffff  ÿÿÿÿÿÿÿÿÿÿÿÿÿÿÿÿÿÿÿÿ
000000D9AD2FB338:   ffffffff ffffffff ffffffff ffffffff ffffffff  ÿÿÿÿÿÿÿÿÿÿÿÿÿÿÿÿÿÿÿÿ
000000D9AD2FB34C:   ffffffff ffffffff ffffffff ffffffff ffffffff  ÿÿÿÿÿÿÿÿÿÿÿÿÿÿÿÿÿÿÿÿ
000000D9AD2FB360:   ffffffff ffffffff ffffffff ffffffff ffffffff  ÿÿÿÿÿÿÿÿÿÿÿÿÿÿÿÿÿÿÿÿ
000000D9AD2FB374:   ffffffff ffffffff ffffffff ffffffff ffffffff  ÿÿÿÿÿÿÿÿÿÿÿÿÿÿÿÿÿÿÿÿ
000000D9AD2FB388:   ffffffff ffffffff ffffffff ffffffff ffffffff  ÿÿÿÿÿÿÿÿÿÿÿÿÿÿÿÿÿÿÿÿ
000000D9AD2FB39C:   ffffffff ffffffff ffffffff ffffffff ffffffff  ÿÿÿÿÿÿÿÿÿÿÿÿÿÿÿÿÿÿÿÿ
000000D9AD2FB3B0:   ffffffff ffffffff ffffffff ffffffff ffffffff  ÿÿÿÿÿÿÿÿÿÿÿÿÿÿÿÿÿÿÿÿ
000000D9AD2FB3C4:   ffffffff ffffffff ffffffff ffffffff ffffffff  ÿÿÿÿÿÿÿÿÿÿÿÿÿÿÿÿÿÿÿÿ
000000D9AD2FB3D8:   ffffffff ffffffff ffffffff ffffffff ffffffff  ÿÿÿÿÿÿÿÿÿÿÿÿÿÿÿÿÿÿÿÿ
000000D9AD2FB3EC:   ffffffff ffffffff ffffffff ffffffff ffffffff  ÿÿÿÿÿÿÿÿÿÿÿÿÿÿÿÿÿÿÿÿ
000000D9AD2FB400:   ffffffff ffffffff ffffffff ffffffff ffffffff  ÿÿÿÿÿÿÿÿÿÿÿÿÿÿÿÿÿÿÿÿ
000000D9AD2FB414:   ffffffff ffffffff ffffffff ffffffff ffffffff  ÿÿÿÿÿÿÿÿÿÿÿÿÿÿÿÿÿÿÿÿ
000000D9AD2FB428:   ffffffff ffffffff ffffffff ffffffff ffffffff  ÿÿÿÿÿÿÿÿÿÿÿÿÿÿÿÿÿÿÿÿ
000000D9AD2FB43C:   ffffffff ffffffff ffffffff ffffffff ffffffff  ÿÿÿÿÿÿÿÿÿÿÿÿÿÿÿÿÿÿÿÿ
000000D9AD2FB450:   ffffffff ffffffff ffffffff ffffffff ffffffff  ÿÿÿÿÿÿÿÿÿÿÿÿÿÿÿÿÿÿÿÿ
000000D9AD2FB464:   ffffffff ffffffff ffffffff ffffffff ffffffff  ÿÿÿÿÿÿÿÿÿÿÿÿÿÿÿÿÿÿÿÿ
000000D9AD2FB478:   ffffffff ffffffff ffffffff ffffffff ffffffff  ÿÿÿÿÿÿÿÿÿÿÿÿÿÿÿÿÿÿÿÿ
000000D9AD2FB48C:   ffffffff ffffffff ffffffff ffffffff ffffffff  ÿÿÿÿÿÿÿÿÿÿÿÿÿÿÿÿÿÿÿÿ
000000D9AD2FB4A0:   ffffffff ffffffff ffffffff ffffffff ffffffff  ÿÿÿÿÿÿÿÿÿÿÿÿÿÿÿÿÿÿÿÿ
000000D9AD2FB4B4:   ffffffff ffffffff ffffffff ffffffff ffffffff  ÿÿÿÿÿÿÿÿÿÿÿÿÿÿÿÿÿÿÿÿ
000000D9AD2FB4C8:   ffffffff ffffffff ffffffff ffffffff ffffffff  ÿÿÿÿÿÿÿÿÿÿÿÿÿÿÿÿÿÿÿÿ
000000D9AD2FB4DC:   ffffffff ffffffff ffffffff ffffffff ffffffff  ÿÿÿÿÿÿÿÿÿÿÿÿÿÿÿÿÿÿÿÿ
000000D9AD2FB4F0:   ffffffff ffffffff ffffffff ffffffff ffffffff  ÿÿÿÿÿÿÿÿÿÿÿÿÿÿÿÿÿÿÿÿ
000000D9AD2FB504:   ffffffff ffffffff ffffffff ffffffff ffffffff  ÿÿÿÿÿÿÿÿÿÿÿÿÿÿÿÿÿÿÿÿ
000000D9AD2FB518:   ffffffff ffffffff ffffffff ffffffff ffffffff  ÿÿÿÿÿÿÿÿÿÿÿÿÿÿÿÿÿÿÿÿ
000000D9AD2FB52C:   ffffffff ffffffff ffffffff ffffffff ffffffff  ÿÿÿÿÿÿÿÿÿÿÿÿÿÿÿÿÿÿÿÿ
000000D9AD2FB540:   ffffffff ffffffff ffffffff ffffffff ffffffff  ÿÿÿÿÿÿÿÿÿÿÿÿÿÿÿÿÿÿÿÿ
000000D9AD2FB554:   ffffffff ffffffff ffffffff ffffffff ffffffff  ÿÿÿÿÿÿÿÿÿÿÿÿÿÿÿÿÿÿÿÿ
000000D9AD2FB568:   ffffffff ffffffff ffffffff ffffffff ffffffff  ÿÿÿÿÿÿÿÿÿÿÿÿÿÿÿÿÿÿÿÿ
000000D9AD2FB57C:   ffffffff ffffffff ffffffff ffffffff ffffffff  ÿÿÿÿÿÿÿÿÿÿÿÿÿÿÿÿÿÿÿÿ
000000D9AD2FB590:   ffffffff ffffffff ffffffff ffffffff ffffffff  ÿÿÿÿÿÿÿÿÿÿÿÿÿÿÿÿÿÿÿÿ
000000D9AD2FB5A4:   ffffffff ffffffff ffffffff ffffffff ffffffff  ÿÿÿÿÿÿÿÿÿÿÿÿÿÿÿÿÿÿÿÿ
000000D9AD2FB5B8:   ffffffff ffffffff ffffffff ffffffff ffffffff  ÿÿÿÿÿÿÿÿÿÿÿÿÿÿÿÿÿÿÿÿ
000000D9AD2FB5CC:   ffffffff ffffffff ffffffff ffffffff ffffffff  ÿÿÿÿÿÿÿÿÿÿÿÿÿÿÿÿÿÿÿÿ
000000D9AD2FB5E0:   ffffffff ffffffff ffffffff ffffffff ffffffff  ÿÿÿÿÿÿÿÿÿÿÿÿÿÿÿÿÿÿÿÿ
000000D9AD2FB5F4:   ffffffff ffffffff ffffffff ffffffff ffffffff  ÿÿÿÿÿÿÿÿÿÿÿÿÿÿÿÿÿÿÿÿ
000000D9AD2FB608:   ffffffff ffffffff ffffffff ffffffff ffffffff  ÿÿÿÿÿÿÿÿÿÿÿÿÿÿÿÿÿÿÿÿ
000000D9AD2FB61C:   ffffffff ffffffff ffffffff ffffffff ffffffff  ÿÿÿÿÿÿÿÿÿÿÿÿÿÿÿÿÿÿÿÿ
000000D9AD2FB630:   ffffffff ffffffff ffffffff ffffffff ffffffff  ÿÿÿÿÿÿÿÿÿÿÿÿÿÿÿÿÿÿÿÿ
000000D9AD2FB644:   ffffffff ffffffff ffffffff ffffffff ffffffff  ÿÿÿÿÿÿÿÿÿÿÿÿÿÿÿÿÿÿÿÿ
000000D9AD2FB658:   ffffffff ffffffff ffffffff ffffffff ffffffff  ÿÿÿÿÿÿÿÿÿÿÿÿÿÿÿÿÿÿÿÿ
000000D9AD2FB66C:   ffffffff ffffffff ffffffff ffffffff ffffffff  ÿÿÿÿÿÿÿÿÿÿÿÿÿÿÿÿÿÿÿÿ
000000D9AD2FB680:   ffffffff ffffffff ffffffff ffffffff ffffffff  ÿÿÿÿÿÿÿÿÿÿÿÿÿÿÿÿÿÿÿÿ
000000D9AD2FB694:   ffffffff ffffffff ffffffff ffffffff ffffffff  ÿÿÿÿÿÿÿÿÿÿÿÿÿÿÿÿÿÿÿÿ
000000D9AD2FB6A8:   ffffffff ffffffff ffffffff ffffffff ffffffff  ÿÿÿÿÿÿÿÿÿÿÿÿÿÿÿÿÿÿÿÿ
000000D9AD2FB6BC:   ffffffff ffffffff ffffffff ffffffff ffffffff  ÿÿÿÿÿÿÿÿÿÿÿÿÿÿÿÿÿÿÿÿ
000000D9AD2FB6D0:   ffffffff ffffffff ffffffff ffffffff ffffffff  ÿÿÿÿÿÿÿÿÿÿÿÿÿÿÿÿÿÿÿÿ
000000D9AD2FB6E4:   ffffffff ffffffff ffffffff ffffffff ffffffff  ÿÿÿÿÿÿÿÿÿÿÿÿÿÿÿÿÿÿÿÿ
000000D9AD2FB6F8:   ffffffff ffffffff ffffffff ffffffff ffffffff  ÿÿÿÿÿÿÿÿÿÿÿÿÿÿÿÿÿÿÿÿ
000000D9AD2FB70C:   ffffffff ffffffff ffffffff ffffffff ffffffff  ÿÿÿÿÿÿÿÿÿÿÿÿÿÿÿÿÿÿÿÿ
000000D9AD2FB720:   ffffffff ffffffff ffffffff ffffffff ffffffff  ÿÿÿÿÿÿÿÿÿÿÿÿÿÿÿÿÿÿÿÿ
000000D9AD2FB734:   ffffffff ffffffff ffffffff ffffffff ffffffff  ÿÿÿÿÿÿÿÿÿÿÿÿÿÿÿÿÿÿÿÿ
000000D9AD2FB748:   ffffffff ffffffff ffffffff ffffffff ffffffff  ÿÿÿÿÿÿÿÿÿÿÿÿÿÿÿÿÿÿÿÿ
000000D9AD2FB75C:   ffffffff ffffffff ffffffff ffffffff ffffffff  ÿÿÿÿÿÿÿÿÿÿÿÿÿÿÿÿÿÿÿÿ
000000D9AD2FB770:   ffffffff ffffffff ffffffff ffffffff ffffffff  ÿÿÿÿÿÿÿÿÿÿÿÿÿÿÿÿÿÿÿÿ
000000D9AD2FB784:   ffffffff ffffffff ffffffff ffffffff ffffffff  ÿÿÿÿÿÿÿÿÿÿÿÿÿÿÿÿÿÿÿÿ
000000D9AD2FB798:   ffffffff ffffffff ffffffff ffffffff ffffffff  ÿÿÿÿÿÿÿÿÿÿÿÿÿÿÿÿÿÿÿÿ
000000D9AD2FB7AC:   ffffffff ffffffff ffffffff ffffffff ffffffff  ÿÿÿÿÿÿÿÿÿÿÿÿÿÿÿÿÿÿÿÿ
000000D9AD2FB7C0:   ffffffff ffffffff ffffffff ffffffff ffffffff  ÿÿÿÿÿÿÿÿÿÿÿÿÿÿÿÿÿÿÿÿ
000000D9AD2FB7D4:   ffffffff ffffffff ffffffff ffffffff ffffffff  ÿÿÿÿÿÿÿÿÿÿÿÿÿÿÿÿÿÿÿÿ
000000D9AD2FB7E8:   ffffffff ffffffff ffffffff ffffffff ffffffff  ÿÿÿÿÿÿÿÿÿÿÿÿÿÿÿÿÿÿÿÿ
000000D9AD2FB7FC:   ffffffff ffffffff ffffffff ffffffff ffffffff  ÿÿÿÿÿÿÿÿÿÿÿÿÿÿÿÿÿÿÿÿ
000000D9AD2FB810:   ffffffff ffffffff ffffffff ffffffff ffffffff  ÿÿÿÿÿÿÿÿÿÿÿÿÿÿÿÿÿÿÿÿ
000000D9AD2FB824:   ffffffff ffffffff ffffffff ffffffff ffffffff  ÿÿÿÿÿÿÿÿÿÿÿÿÿÿÿÿÿÿÿÿ
000000D9AD2FB838:   ffffffff ffffffff ffffffff ffffffff ffffffff  ÿÿÿÿÿÿÿÿÿÿÿÿÿÿÿÿÿÿÿÿ
000000D9AD2FB84C:   ffffffff ffffffff ffffffff ffffffff ffffffff  ÿÿÿÿÿÿÿÿÿÿÿÿÿÿÿÿÿÿÿÿ
000000D9AD2FB860:   ffffffff ffffffff ffffffff ffffffff ffffffff  ÿÿÿÿÿÿÿÿÿÿÿÿÿÿÿÿÿÿÿÿ
000000D9AD2FB874:   ffffffff ffffffff ffffffff ffffffff ffffffff  ÿÿÿÿÿÿÿÿÿÿÿÿÿÿÿÿÿÿÿÿ
000000D9AD2FB888:   ffffffff ffffffff ffffffff ffffffff ffffffff  ÿÿÿÿÿÿÿÿÿÿÿÿÿÿÿÿÿÿÿÿ
000000D9AD2FB89C:   ffffffff ffffffff ffffffff ffffffff ffffffff  ÿÿÿÿÿÿÿÿÿÿÿÿÿÿÿÿÿÿÿÿ
000000D9AD2FB8B0:   ffffffff ffffffff ffffffff ffffffff ffffffff  ÿÿÿÿÿÿÿÿÿÿÿÿÿÿÿÿÿÿÿÿ
000000D9AD2FB8C4:   ffffffff ffffffff ffffffff ffffffff ffffffff  ÿÿÿÿÿÿÿÿÿÿÿÿÿÿÿÿÿÿÿÿ
000000D9AD2FB8D8:   ffffffff ffffffff ffffffff ffffffff ffffffff  ÿÿÿÿÿÿÿÿÿÿÿÿÿÿÿÿÿÿÿÿ
000000D9AD2FB8EC:   ffffffff ffffffff ffffffff ffffffff ffffffff  ÿÿÿÿÿÿÿÿÿÿÿÿÿÿÿÿÿÿÿÿ
000000D9AD2FB900:   ffffffff ffffffff ffffffff ffffffff ffffffff  ÿÿÿÿÿÿÿÿÿÿÿÿÿÿÿÿÿÿÿÿ
000000D9AD2FB914:   ffffffff ffffffff ffffffff ffffffff ffffffff  ÿÿÿÿÿÿÿÿÿÿÿÿÿÿÿÿÿÿÿÿ
000000D9AD2FB928:   ffffffff ffffffff ffffffff ffffffff ffffffff  ÿÿÿÿÿÿÿÿÿÿÿÿÿÿÿÿÿÿÿÿ
000000D9AD2FB93C:   ffffffff ffffffff ffffffff ffffffff ffffffff  ÿÿÿÿÿÿÿÿÿÿÿÿÿÿÿÿÿÿÿÿ
000000D9AD2FB950:   ffffffff ffffffff ffffffff ffffffff ffffffff  ÿÿÿÿÿÿÿÿÿÿÿÿÿÿÿÿÿÿÿÿ
000000D9AD2FB964:   ffffffff ffffffff ffffffff ffffffff ffffffff  ÿÿÿÿÿÿÿÿÿÿÿÿÿÿÿÿÿÿÿÿ
000000D9AD2FB978:   ffffffff ffffffff ffffffff ffffffff ffffffff  ÿÿÿÿÿÿÿÿÿÿÿÿÿÿÿÿÿÿÿÿ
000000D9AD2FB98C:   ffffffff ffffffff ffffffff ffffffff ffffffff  ÿÿÿÿÿÿÿÿÿÿÿÿÿÿÿÿÿÿÿÿ
000000D9AD2FB9A0:   ffffffff ffffffff ffffffff ffffffff ffffffff  ÿÿÿÿÿÿÿÿÿÿÿÿÿÿÿÿÿÿÿÿ
000000D9AD2FB9B4:   ffffffff ffffffff ffffffff ffffffff ffffffff  ÿÿÿÿÿÿÿÿÿÿÿÿÿÿÿÿÿÿÿÿ
000000D9AD2FB9C8:   ffffffff ffffffff ffffffff ffffffff ffffffff  ÿÿÿÿÿÿÿÿÿÿÿÿÿÿÿÿÿÿÿÿ
000000D9AD2FB9DC:   ffffffff ffffffff ffffffff ffffffff ffffffff  ÿÿÿÿÿÿÿÿÿÿÿÿÿÿÿÿÿÿÿÿ
000000D9AD2FB9F0:   ffffffff ffffffff ffffffff ffffffff ffffffff  ÿÿÿÿÿÿÿÿÿÿÿÿÿÿÿÿÿÿÿÿ
000000D9AD2FBA04:   ffffffff ffffffff ffffffff ffffffff ffffffff  ÿÿÿÿÿÿÿÿÿÿÿÿÿÿÿÿÿÿÿÿ
000000D9AD2FBA18:   ffffffff ffffffff ffffffff ffffffff ffffffff  ÿÿÿÿÿÿÿÿÿÿÿÿÿÿÿÿÿÿÿÿ
000000D9AD2FBA2C:   ffffffff ffffffff ffffffff ffffffff ffffffff  ÿÿÿÿÿÿÿÿÿÿÿÿÿÿÿÿÿÿÿÿ
000000D9AD2FBA40:   ffffffff ffffffff ffffffff ffffffff ffffffff  ÿÿÿÿÿÿÿÿÿÿÿÿÿÿÿÿÿÿÿÿ
000000D9AD2FBA54:   ffffffff ffffffff ffffffff ffffffff ffffffff  ÿÿÿÿÿÿÿÿÿÿÿÿÿÿÿÿÿÿÿÿ
000000D9AD2FBA68:   ffffffff ffffffff ffffffff ffffffff ffffffff  ÿÿÿÿÿÿÿÿÿÿÿÿÿÿÿÿÿÿÿÿ
000000D9AD2FBA7C:   ffffffff ffffffff ffffffff ffffffff ffffffff  ÿÿÿÿÿÿÿÿÿÿÿÿÿÿÿÿÿÿÿÿ
000000D9AD2FBA90:   ffffffff ffffffff ffffffff ffffffff ffffffff  ÿÿÿÿÿÿÿÿÿÿÿÿÿÿÿÿÿÿÿÿ
000000D9AD2FBAA4:   ffffffff ffffffff ffffffff ffffffff ffffffff  ÿÿÿÿÿÿÿÿÿÿÿÿÿÿÿÿÿÿÿÿ
000000D9AD2FBAB8:   ffffffff ffffffff ffffffff ffffffff ffffffff  ÿÿÿÿÿÿÿÿÿÿÿÿÿÿÿÿÿÿÿÿ
000000D9AD2FBACC:   ffffffff ffffffff ffffffff ffffffff ffffffff  ÿÿÿÿÿÿÿÿÿÿÿÿÿÿÿÿÿÿÿÿ
000000D9AD2FBAE0:   ffffffff ffffffff ffffffff ffffffff ffffffff  ÿÿÿÿÿÿÿÿÿÿÿÿÿÿÿÿÿÿÿÿ
000000D9AD2FBAF4:   ffffffff ffffffff ffffffff ffffffff ffffffff  ÿÿÿÿÿÿÿÿÿÿÿÿÿÿÿÿÿÿÿÿ
000000D9AD2FBB08:   ffffffff ffffffff ffffffff ffffffff ffffffff  ÿÿÿÿÿÿÿÿÿÿÿÿÿÿÿÿÿÿÿÿ
000000D9AD2FBB1C:   ffffffff ffffffff ffffffff ffffffff ffffffff  ÿÿÿÿÿÿÿÿÿÿÿÿÿÿÿÿÿÿÿÿ
000000D9AD2FBB30:   ffffffff ffffffff ffffffff ffffffff ffffffff  ÿÿÿÿÿÿÿÿÿÿÿÿÿÿÿÿÿÿÿÿ
000000D9AD2FBB44:   ffffffff ffffffff ffffffff ffffffff ffffffff  ÿÿÿÿÿÿÿÿÿÿÿÿÿÿÿÿÿÿÿÿ
000000D9AD2FBB58:   ffffffff ffffffff ffffffff ffffffff ffffffff  ÿÿÿÿÿÿÿÿÿÿÿÿÿÿÿÿÿÿÿÿ
000000D9AD2FBB6C:   ffffffff ffffffff ffffffff ffffffff ffffffff  ÿÿÿÿÿÿÿÿÿÿÿÿÿÿÿÿÿÿÿÿ
000000D9AD2FBB80:   ffffffff ffffffff ffffffff ffffffff ffffffff  ÿÿÿÿÿÿÿÿÿÿÿÿÿÿÿÿÿÿÿÿ
000000D9AD2FBB94:   ffffffff ffffffff ffffffff ffffffff ffffffff  ÿÿÿÿÿÿÿÿÿÿÿÿÿÿÿÿÿÿÿÿ
000000D9AD2FBBA8:   ffffffff ffffffff ffffffff ffffffff ffffffff  ÿÿÿÿÿÿÿÿÿÿÿÿÿÿÿÿÿÿÿÿ
000000D9AD2FBBBC:   ffffffff ffffffff ffffffff ffffffff ffffffff  ÿÿÿÿÿÿÿÿÿÿÿÿÿÿÿÿÿÿÿÿ
000000D9AD2FBBD0:   ffffffff ffffffff ffffffff ffffffff ffffffff  ÿÿÿÿÿÿÿÿÿÿÿÿÿÿÿÿÿÿÿÿ
000000D9AD2FBBE4:   ffffffff ffffffff ffffffff ffffffff ffffffff  ÿÿÿÿÿÿÿÿÿÿÿÿÿÿÿÿÿÿÿÿ
000000D9AD2FBBF8:   ffffffff ffffffff ffffffff ffffffff ffffffff  ÿÿÿÿÿÿÿÿÿÿÿÿÿÿÿÿÿÿÿÿ
000000D9AD2FBC0C:   ffffffff ffffffff ffffffff ffffffff ffffffff  ÿÿÿÿÿÿÿÿÿÿÿÿÿÿÿÿÿÿÿÿ
000000D9AD2FBC20:   ffffffff ffffffff ffffffff ffffffff ffffffff  ÿÿÿÿÿÿÿÿÿÿÿÿÿÿÿÿÿÿÿÿ
000000D9AD2FBC34:   ffffffff ffffffff ffffffff ffffffff ffffffff  ÿÿÿÿÿÿÿÿÿÿÿÿÿÿÿÿÿÿÿÿ
000000D9AD2FBC48:   ffffffff ffffffff ffffffff ffffffff ffffffff  ÿÿÿÿÿÿÿÿÿÿÿÿÿÿÿÿÿÿÿÿ
000000D9AD2FBC5C:   ffffffff ffffffff ffffffff ffffffff ffffffff  ÿÿÿÿÿÿÿÿÿÿÿÿÿÿÿÿÿÿÿÿ
000000D9AD2FBC70:   ffffffff ffffffff ffffffff ffffffff ffffffff  ÿÿÿÿÿÿÿÿÿÿÿÿÿÿÿÿÿÿÿÿ
000000D9AD2FBC84:   ffffffff ffffffff ffffffff ffffffff ffffffff  ÿÿÿÿÿÿÿÿÿÿÿÿÿÿÿÿÿÿÿÿ
000000D9AD2FBC98:   ffffffff ffffffff ffffffff ffffffff ffffffff  ÿÿÿÿÿÿÿÿÿÿÿÿÿÿÿÿÿÿÿÿ
000000D9AD2FBCAC:   ffffffff ffffffff ffffffff ffffffff ffffffff  ÿÿÿÿÿÿÿÿÿÿÿÿÿÿÿÿÿÿÿÿ
000000D9AD2FBCC0:   ffffffff ffffffff ffffffff ffffffff ffffffff  ÿÿÿÿÿÿÿÿÿÿÿÿÿÿÿÿÿÿÿÿ
000000D9AD2FBCD4:   ffffffff ffffffff ffffffff ffffffff ffffffff  ÿÿÿÿÿÿÿÿÿÿÿÿÿÿÿÿÿÿÿÿ
000000D9AD2FBCE8:   ffffffff ffffffff ffffffff ffffffff ffffffff  ÿÿÿÿÿÿÿÿÿÿÿÿÿÿÿÿÿÿÿÿ
000000D9AD2FBCFC:   ffffffff ffffffff ffffffff ffffffff ffffffff  ÿÿÿÿÿÿÿÿÿÿÿÿÿÿÿÿÿÿÿÿ
000000D9AD2FBD10:   ffffffff ffffffff ffffffff ffffffff ffffffff  ÿÿÿÿÿÿÿÿÿÿÿÿÿÿÿÿÿÿÿÿ
000000D9AD2FBD24:   ffffffff ffffffff ffffffff ffffffff ffffffff  ÿÿÿÿÿÿÿÿÿÿÿÿÿÿÿÿÿÿÿÿ
000000D9AD2FBD38:   ffffffff ffffffff ffffffff ffffffff ffffffff  ÿÿÿÿÿÿÿÿÿÿÿÿÿÿÿÿÿÿÿÿ
000000D9AD2FBD4C:   ffffffff ffffffff ffffffff ffffffff ffffffff  ÿÿÿÿÿÿÿÿÿÿÿÿÿÿÿÿÿÿÿÿ
000000D9AD2FBD60:   ffffffff ffffffff ffffffff ffffffff ffffffff  ÿÿÿÿÿÿÿÿÿÿÿÿÿÿÿÿÿÿÿÿ
000000D9AD2FBD74:   ffffffff ffffffff ffffffff ffffffff ffffffff  ÿÿÿÿÿÿÿÿÿÿÿÿÿÿÿÿÿÿÿÿ
000000D9AD2FBD88:   ffffffff ffffffff ffffffff ffffffff ffffffff  ÿÿÿÿÿÿÿÿÿÿÿÿÿÿÿÿÿÿÿÿ
000000D9AD2FBD9C:   ffffffff ffffffff ffffffff ffffffff ffffffff  ÿÿÿÿÿÿÿÿÿÿÿÿÿÿÿÿÿÿÿÿ
000000D9AD2FBDB0:   ffffffff ffffffff ffffffff ffffffff ffffffff  ÿÿÿÿÿÿÿÿÿÿÿÿÿÿÿÿÿÿÿÿ
000000D9AD2FBDC4:   ffffffff ffffffff ffffffff ffffffff ffffffff  ÿÿÿÿÿÿÿÿÿÿÿÿÿÿÿÿÿÿÿÿ
000000D9AD2FBDD8:   ffffffff ffffffff ffffffff ffffffff ffffffff  ÿÿÿÿÿÿÿÿÿÿÿÿÿÿÿÿÿÿÿÿ
000000D9AD2FBDEC:   ffffffff ffffffff ffffffff ffffffff ffffffff  ÿÿÿÿÿÿÿÿÿÿÿÿÿÿÿÿÿÿÿÿ
000000D9AD2FBE00:   ffffffff ffffffff ffffffff ffffffff ffffffff  ÿÿÿÿÿÿÿÿÿÿÿÿÿÿÿÿÿÿÿÿ
000000D9AD2FBE14:   ffffffff ffffffff ffffffff ffffffff ffffffff  ÿÿÿÿÿÿÿÿÿÿÿÿÿÿÿÿÿÿÿÿ
000000D9AD2FBE28:   ffffffff ffffffff ffffffff ffffffff ffffffff  ÿÿÿÿÿÿÿÿÿÿÿÿÿÿÿÿÿÿÿÿ
000000D9AD2FBE3C:   ffffffff ffffffff ffffffff ffffffff ffffffff  ÿÿÿÿÿÿÿÿÿÿÿÿÿÿÿÿÿÿÿÿ
000000D9AD2FBE50:   ffffffff ffffffff ffffffff ffffffff ffffffff  ÿÿÿÿÿÿÿÿÿÿÿÿÿÿÿÿÿÿÿÿ
000000D9AD2FBE64:   ffffffff ffffffff ffffffff ffffffff ffffffff  ÿÿÿÿÿÿÿÿÿÿÿÿÿÿÿÿÿÿÿÿ
000000D9AD2FBE78:   ffffffff ffffffff ffffffff ffffffff ffffffff  ÿÿÿÿÿÿÿÿÿÿÿÿÿÿÿÿÿÿÿÿ
000000D9AD2FBE8C:   ffffffff ffffffff ffffffff ffffffff ffffffff  ÿÿÿÿÿÿÿÿÿÿÿÿÿÿÿÿÿÿÿÿ
000000D9AD2FBEA0:   ffffffff ffffffff ffffffff ffffffff ffffffff  ÿÿÿÿÿÿÿÿÿÿÿÿÿÿÿÿÿÿÿÿ
000000D9AD2FBEB4:   ffffffff ffffffff ffffffff ffffffff ffffffff  ÿÿÿÿÿÿÿÿÿÿÿÿÿÿÿÿÿÿÿÿ
000000D9AD2FBEC8:   ffffffff ffffffff ffffffff ffffffff ffffffff  ÿÿÿÿÿÿÿÿÿÿÿÿÿÿÿÿÿÿÿÿ
000000D9AD2FBEDC:   ffffffff ffffffff ffffffff ffffffff ffffffff  ÿÿÿÿÿÿÿÿÿÿÿÿÿÿÿÿÿÿÿÿ
000000D9AD2FBEF0:   ffffffff ffffffff ffffffff ffffffff ffffffff  ÿÿÿÿÿÿÿÿÿÿÿÿÿÿÿÿÿÿÿÿ
000000D9AD2FBF04:   ffffffff ffffffff ffffffff ffffffff ffffffff  ÿÿÿÿÿÿÿÿÿÿÿÿÿÿÿÿÿÿÿÿ
000000D9AD2FBF18:   ffffffff ffffffff ffffffff ffffffff ffffffff  ÿÿÿÿÿÿÿÿÿÿÿÿÿÿÿÿÿÿÿÿ
000000D9AD2FBF2C:   ffffffff ffffffff ffffffff ffffffff ffffffff  ÿÿÿÿÿÿÿÿÿÿÿÿÿÿÿÿÿÿÿÿ
000000D9AD2FBF40:   ffffffff ffffffff ffffffff ffffffff ffffffff  ÿÿÿÿÿÿÿÿÿÿÿÿÿÿÿÿÿÿÿÿ
000000D9AD2FBF54:   ffffffff ffffffff ffffffff ffffffff ffffffff  ÿÿÿÿÿÿÿÿÿÿÿÿÿÿÿÿÿÿÿÿ
000000D9AD2FBF68:   ffffffff ffffffff ffffffff ffffffff ffffffff  ÿÿÿÿÿÿÿÿÿÿÿÿÿÿÿÿÿÿÿÿ
000000D9AD2FBF7C:   ffffffff ffffffff ffffffff ffffffff ffffffff  ÿÿÿÿÿÿÿÿÿÿÿÿÿÿÿÿÿÿÿÿ
000000D9AD2FBF90:   ffffffff ffffffff ffffffff ffffffff ffffffff  ÿÿÿÿÿÿÿÿÿÿÿÿÿÿÿÿÿÿÿÿ
000000D9AD2FBFA4:   ffffffff ffffffff ffffffff ffffffff ffffffff  ÿÿÿÿÿÿÿÿÿÿÿÿÿÿÿÿÿÿÿÿ
000000D9AD2FBFB8:   ffffffff ffffffff ffffffff ffffffff ffffffff  ÿÿÿÿÿÿÿÿÿÿÿÿÿÿÿÿÿÿÿÿ
000000D9AD2FBFCC:   ffffffff ffffffff ffffffff ffffffff ffffffff  ÿÿÿÿÿÿÿÿÿÿÿÿÿÿÿÿÿÿÿÿ
000000D9AD2FBFE0:   ffffffff ffffffff ffffffff ffffffff ffffffff  ÿÿÿÿÿÿÿÿÿÿÿÿÿÿÿÿÿÿÿÿ
000000D9AD2FBFF4:   ffff0000 00000000 be006000                    ÿÿ......¾.`.


DBCC execution completed. If DBCC printed error messages, contact your system administrator.
