DBCC execution completed. If DBCC printed error messages, contact your system administrator.

PAGE: (1:1)


BUFFER:


BUF @0x00000278ECABAE00

bpage = 0x00000278BE4B0000          bhash = 0x0000000000000000          bpageno = (1:1)
bdbid = 7                           breferences = 0                     bcputicks = 0
bsampleCount = 0                    bUse1 = 46649                       bstat = 0x9
blog = 0x15ab215a                   bnext = 0x0000000000000000          bDirtyContext = 0x0000000000000000
bstat2 = 0x0

PAGE HEADER:


Page @0x00000278BE4B0000

m_pageId = (1:1)                    m_headerVersion = 1                 m_type = 11
m_typeFlagBits = 0x0                m_level = 0                         m_flagBits = 0x0
m_objId (AllocUnitId.idObj) = 99    m_indexId (AllocUnitId.idInd) = 0   Metadata: AllocUnitId = 6488064
Metadata: PartitionId = 0           Metadata: IndexId = 0               Metadata: ObjectId = 99
m_prevPage = (0:0)                  m_nextPage = (0:0)                  pminlen = 0
m_slotCnt = 1                       m_freeCnt = 2                       m_freeData = 8188
m_reservedCnt = 0                   m_lsn = (34:2960:17)                m_xactReserved = 0
m_xdesId = (0:0)                    m_ghostRecCnt = 0                   m_tornBits = 1030296110
DB Frag ID = 1

Allocation Status

GAM (1:2) = ALLOCATED               SGAM (1:3) = NOT ALLOCATED          PFS (1:1) = 0x44 ALLOCATED 100_PCT_FULL
DIFF (1:6) = CHANGED                ML (1:7) = NOT MIN_LOGGED

DATA:


Memory Dump @0x000000D9AD2FA000

000000D9AD2FA000:   010b0000 00000000 00000000 00000000 00000000  ....................
000000D9AD2FA014:   00000100 63000000 0200fc1f 01000000 01000000  ....c.....ü.........
000000D9AD2FA028:   22000000 900b0000 11000000 00000000 00000000  "...................
000000D9AD2FA03C:   2e12693d 00000000 00000000 00000000 00000000  ..i=................
000000D9AD2FA050:   00000000 00000000 00000000 00000000 00009c1f  ...................
000000D9AD2FA064:   44444444 00004444 60647060 74706070 60607060  DDDD..DD`dp`tp`p``p`
000000D9AD2FA078:   60707060 40404040 40404040 61702070 60606070  `pp`@@@@@@@@ap p```p
000000D9AD2FA08C:   20606060 60706060 60706060 60606070 40404040   ````p```p`````p@@@@
000000D9AD2FA0A0:   40404040 40404040 40404040 60206060 70202020  @@@@@@@@@@@@` ``p
000000D9AD2FA0B4:   20706070 70606060 70202060 70602060 70607060   p`pp```p  `p` `p`p`
000000D9AD2FA0C8:   70607060 70607060 70606060 60607060 60702060  p`p`p`p`p`````p``p `
000000D9AD2FA0DC:   60606070 60702020 60707070 60607060 60706060  ```p`p  `ppp``p``p``
000000D9AD2FA0F0:   60706060 70707070 60607060 70607060 70706060  `p``pppp``p`p`p`pp``
000000D9AD2FA104:   60607060 60607060 40404040 00000000 40404040  ``p```p`@@@@....@@@@
000000D9AD2FA118:   40404000 60606070 70707060 40400000 00000000  @@@.```pppp`@@......
000000D9AD2FA12C:   70706060 70702060 20602020 20206060 40404040  pp``pp ` `    ``@@@@
000000D9AD2FA140:   40404040 40000000 00000000 40404040 40404040  @@@@@.......@@@@@@@@
000000D9AD2FA154:   60606020 30203020 40404040 40404040 40000000  ``` 0 0 @@@@@@@@@...
000000D9AD2FA168:   00000000 40000000 00000000 40404040 40404040  ....@.......@@@@@@@@
000000D9AD2FA17C:   40404040 00000000 40400000 00000000 20202020  @@@@....@@......
000000D9AD2FA190:   20302030 20302030 20302030 00000000 00000000   0 0 0 0 0 0........
000000D9AD2FA1A4:   30302424 22000000 00000000 00000000 00000000  00$$"...............
000000D9AD2FA1B8:   00000000 00000000 00000000 00000000 00000000  ....................
000000D9AD2FA1CC:   00000000 00000000 40400000 00000000 40000000  ........@@......@...
000000D9AD2FA1E0:   00000000 00000000 00000000 00000000 00000000  ....................
000000D9AD2FA1F4:   00000000 00000000 40000000 00000000 00000000  ........@...........
000000D9AD2FA208:   00000000 00000000 00000000 00000000 00000000  ....................
000000D9AD2FA21C:   00000000 00000000 40400000 00000000 40000000  ........@@......@...
000000D9AD2FA230:   00000000 40000000 00000000 40000000 00000000  ....@.......@.......
000000D9AD2FA244:   40000000 00000000 40000000 00000000 40404040  @.......@.......@@@@
000000D9AD2FA258:   40404040 40404040 40404040 40404000 00000000  @@@@@@@@@@@@@@@.....
000000D9AD2FA26C:   00000000 00000000 40000000 00000000 00000000  ........@...........
000000D9AD2FA280:   00000000 00000000 00000000 00000000 00000000  ....................
000000D9AD2FA294:   40404040 40404040 40404040 40404040 40404040  @@@@@@@@@@@@@@@@@@@@
000000D9AD2FA2A8:   40404000 00000000 00000000 40000000 00000000  @@@.........@.......
000000D9AD2FA2BC:   00000000 00000000 00000000 00000000 00000000  ....................
000000D9AD2FA2D0:   00000000 44444244 41000000 40000000 00000000  ....DDBDA...@.......
000000D9AD2FA2E4:   40000000 00000000 40000000 00000000 40000000  @.......@.......@...
000000D9AD2FA2F8:   00000000 40000000 00000000 40000000 00000000  ....@.......@.......
000000D9AD2FA30C:   40000000 00000000 00000000 00000000 00000000  @...................
000000D9AD2FA320:   00000000 00000000 00000000 00000000 00000000  ....................
000000D9AD2FA334:   00000000 00000000 00000000 00000000 00000000  ....................
000000D9AD2FA348:   00000000 00000000 00000000 00000000 00000000  ....................
000000D9AD2FA35C:   00000000 00000000 00000000 00000000 00000000  ....................
000000D9AD2FA370:   00000000 00000000 00000000 00000000 00000000  ....................
000000D9AD2FA384:   00000000 00000000 00000000 00000000 00000000  ....................
000000D9AD2FA398:   00000000 00000000 00000000 00000000 00000000  ....................
000000D9AD2FA3AC:   00000000 00000000 00000000 00000000 00000000  ....................
000000D9AD2FA3C0:   00000000 00000000 00000000 00000000 00000000  ....................
000000D9AD2FA3D4:   00000000 00000000 00000000 00000000 00000000  ....................
000000D9AD2FA3E8:   00000000 00000000 00000000 00000000 00000000  ....................
000000D9AD2FA3FC:   00000000 00000000 00000000 00000000 00000000  ....................
000000D9AD2FA410:   00000000 00000000 00000000 00000000 00000000  ....................
000000D9AD2FA424:   00000000 00000000 00000000 00000000 00000000  ....................
000000D9AD2FA438:   00000000 00000000 00000000 00000000 00000000  ....................
000000D9AD2FA44C:   00000000 00000000 00000000 00000000 00000000  ....................
000000D9AD2FA460:   00000000 00000000 00000000 00000000 00000000  ....................
000000D9AD2FA474:   00000000 00000000 00000000 00000000 00000000  ....................
000000D9AD2FA488:   00000000 00000000 00000000 00000000 00000000  ....................
000000D9AD2FA49C:   00000000 00000000 00000000 00000000 00000000  ....................
000000D9AD2FA4B0:   00000000 00000000 00000000 00000000 00000000  ....................
000000D9AD2FA4C4:   00000000 00000000 00000000 00000000 00000000  ....................
000000D9AD2FA4D8:   00000000 00000000 00000000 00000000 00000000  ....................
000000D9AD2FA4EC:   00000000 00000000 00000000 00000000 00000000  ....................
000000D9AD2FA500:   00000000 00000000 00000000 00000000 00000000  ....................
000000D9AD2FA514:   00000000 00000000 00000000 00000000 00000000  ....................
000000D9AD2FA528:   00000000 00000000 00000000 00000000 00000000  ....................
000000D9AD2FA53C:   00000000 00000000 00000000 00000000 00000000  ....................
000000D9AD2FA550:   00000000 00000000 00000000 00000000 00000000  ....................
000000D9AD2FA564:   00000000 00000000 00000000 00000000 00000000  ....................
000000D9AD2FA578:   00000000 00000000 00000000 00000000 00000000  ....................
000000D9AD2FA58C:   00000000 00000000 00000000 00000000 00000000  ....................
000000D9AD2FA5A0:   00000000 00000000 00000000 00000000 00000000  ....................
000000D9AD2FA5B4:   00000000 00000000 00000000 00000000 00000000  ....................
000000D9AD2FA5C8:   00000000 00000000 00000000 00000000 00000000  ....................
000000D9AD2FA5DC:   00000000 00000000 00000000 00000000 00000000  ....................
000000D9AD2FA5F0:   00000000 00000000 00000000 00000000 00000000  ....................
000000D9AD2FA604:   00000000 00000000 00000000 00000000 00000000  ....................
000000D9AD2FA618:   00000000 00000000 00000000 00000000 00000000  ....................
000000D9AD2FA62C:   00000000 00000000 00000000 00000000 00000000  ....................
000000D9AD2FA640:   00000000 00000000 00000000 00000000 00000000  ....................
000000D9AD2FA654:   00000000 00000000 00000000 00000000 00000000  ....................
000000D9AD2FA668:   00000000 00000000 00000000 00000000 00000000  ....................
000000D9AD2FA67C:   00000000 00000000 00000000 00000000 00000000  ....................
000000D9AD2FA690:   00000000 00000000 00000000 00000000 00000000  ....................
000000D9AD2FA6A4:   00000000 00000000 00000000 00000000 00000000  ....................
000000D9AD2FA6B8:   00000000 00000000 00000000 00000000 00000000  ....................
000000D9AD2FA6CC:   00000000 00000000 00000000 00000000 00000000  ....................
000000D9AD2FA6E0:   00000000 00000000 00000000 00000000 00000000  ....................
000000D9AD2FA6F4:   00000000 00000000 00000000 00000000 00000000  ....................
000000D9AD2FA708:   00000000 00000000 00000000 00000000 00000000  ....................
000000D9AD2FA71C:   00000000 00000000 00000000 00000000 00000000  ....................
000000D9AD2FA730:   00000000 00000000 00000000 00000000 00000000  ....................
000000D9AD2FA744:   00000000 00000000 00000000 00000000 00000000  ....................
000000D9AD2FA758:   00000000 00000000 00000000 00000000 00000000  ....................
000000D9AD2FA76C:   00000000 00000000 00000000 00000000 00000000  ....................
000000D9AD2FA780:   00000000 00000000 00000000 00000000 00000000  ....................
000000D9AD2FA794:   00000000 00000000 00000000 00000000 00000000  ....................
000000D9AD2FA7A8:   00000000 00000000 00000000 00000000 00000000  ....................
000000D9AD2FA7BC:   00000000 00000000 00000000 00000000 00000000  ....................
000000D9AD2FA7D0:   00000000 00000000 00000000 00000000 00000000  ....................
000000D9AD2FA7E4:   00000000 00000000 00000000 00000000 00000000  ....................
000000D9AD2FA7F8:   00000000 00000000 00000000 00000000 00000000  ....................
000000D9AD2FA80C:   00000000 00000000 00000000 00000000 00000000  ....................
000000D9AD2FA820:   00000000 00000000 00000000 00000000 00000000  ....................
000000D9AD2FA834:   00000000 00000000 00000000 00000000 00000000  ....................
000000D9AD2FA848:   00000000 00000000 00000000 00000000 00000000  ....................
000000D9AD2FA85C:   00000000 00000000 00000000 00000000 00000000  ....................
000000D9AD2FA870:   00000000 00000000 00000000 00000000 00000000  ....................
000000D9AD2FA884:   00000000 00000000 00000000 00000000 00000000  ....................
000000D9AD2FA898:   00000000 00000000 00000000 00000000 00000000  ....................
000000D9AD2FA8AC:   00000000 00000000 00000000 00000000 00000000  ....................
000000D9AD2FA8C0:   00000000 00000000 00000000 00000000 00000000  ....................
000000D9AD2FA8D4:   00000000 00000000 00000000 00000000 00000000  ....................
000000D9AD2FA8E8:   00000000 00000000 00000000 00000000 00000000  ....................
000000D9AD2FA8FC:   00000000 00000000 00000000 00000000 00000000  ....................
000000D9AD2FA910:   00000000 00000000 00000000 00000000 00000000  ....................
000000D9AD2FA924:   00000000 00000000 00000000 00000000 00000000  ....................
000000D9AD2FA938:   00000000 00000000 00000000 00000000 00000000  ....................
000000D9AD2FA94C:   00000000 00000000 00000000 00000000 00000000  ....................
000000D9AD2FA960:   00000000 00000000 00000000 00000000 00000000  ....................
000000D9AD2FA974:   00000000 00000000 00000000 00000000 00000000  ....................
000000D9AD2FA988:   00000000 00000000 00000000 00000000 00000000  ....................
000000D9AD2FA99C:   00000000 00000000 00000000 00000000 00000000  ....................
000000D9AD2FA9B0:   00000000 00000000 00000000 00000000 00000000  ....................
000000D9AD2FA9C4:   00000000 00000000 00000000 00000000 00000000  ....................
000000D9AD2FA9D8:   00000000 00000000 00000000 00000000 00000000  ....................
000000D9AD2FA9EC:   00000000 00000000 00000000 00000000 00000000  ....................
000000D9AD2FAA00:   00000000 00000000 00000000 00000000 00000000  ....................
000000D9AD2FAA14:   00000000 00000000 00000000 00000000 00000000  ....................
000000D9AD2FAA28:   00000000 00000000 00000000 00000000 00000000  ....................
000000D9AD2FAA3C:   00000000 00000000 00000000 00000000 00000000  ....................
000000D9AD2FAA50:   00000000 00000000 00000000 00000000 00000000  ....................
000000D9AD2FAA64:   00000000 00000000 00000000 00000000 00000000  ....................
000000D9AD2FAA78:   00000000 00000000 00000000 00000000 00000000  ....................
000000D9AD2FAA8C:   00000000 00000000 00000000 00000000 00000000  ....................
000000D9AD2FAAA0:   00000000 00000000 00000000 00000000 00000000  ....................
000000D9AD2FAAB4:   00000000 00000000 00000000 00000000 00000000  ....................
000000D9AD2FAAC8:   00000000 00000000 00000000 00000000 00000000  ....................
000000D9AD2FAADC:   00000000 00000000 00000000 00000000 00000000  ....................
000000D9AD2FAAF0:   00000000 00000000 00000000 00000000 00000000  ....................
000000D9AD2FAB04:   00000000 00000000 00000000 00000000 00000000  ....................
000000D9AD2FAB18:   00000000 00000000 00000000 00000000 00000000  ....................
000000D9AD2FAB2C:   00000000 00000000 00000000 00000000 00000000  ....................
000000D9AD2FAB40:   00000000 00000000 00000000 00000000 00000000  ....................
000000D9AD2FAB54:   00000000 00000000 00000000 00000000 00000000  ....................
000000D9AD2FAB68:   00000000 00000000 00000000 00000000 00000000  ....................
000000D9AD2FAB7C:   00000000 00000000 00000000 00000000 00000000  ....................
000000D9AD2FAB90:   00000000 00000000 00000000 00000000 00000000  ....................
000000D9AD2FABA4:   00000000 00000000 00000000 00000000 00000000  ....................
000000D9AD2FABB8:   00000000 00000000 00000000 00000000 00000000  ....................
000000D9AD2FABCC:   00000000 00000000 00000000 00000000 00000000  ....................
000000D9AD2FABE0:   00000000 00000000 00000000 00000000 00000000  ....................
000000D9AD2FABF4:   00000000 00000000 00000000 00000000 00000000  ....................
000000D9AD2FAC08:   00000000 00000000 00000000 00000000 00000000  ....................
000000D9AD2FAC1C:   00000000 00000000 00000000 00000000 00000000  ....................
000000D9AD2FAC30:   00000000 00000000 00000000 00000000 00000000  ....................
000000D9AD2FAC44:   00000000 00000000 00000000 00000000 00000000  ....................
000000D9AD2FAC58:   00000000 00000000 00000000 00000000 00000000  ....................
000000D9AD2FAC6C:   00000000 00000000 00000000 00000000 00000000  ....................
000000D9AD2FAC80:   00000000 00000000 00000000 00000000 00000000  ....................
000000D9AD2FAC94:   00000000 00000000 00000000 00000000 00000000  ....................
000000D9AD2FACA8:   00000000 00000000 00000000 00000000 00000000  ....................
000000D9AD2FACBC:   00000000 00000000 00000000 00000000 00000000  ....................
000000D9AD2FACD0:   00000000 00000000 00000000 00000000 00000000  ....................
000000D9AD2FACE4:   00000000 00000000 00000000 00000000 00000000  ....................
000000D9AD2FACF8:   00000000 00000000 00000000 00000000 00000000  ....................
000000D9AD2FAD0C:   00000000 00000000 00000000 00000000 00000000  ....................
000000D9AD2FAD20:   00000000 00000000 00000000 00000000 00000000  ....................
000000D9AD2FAD34:   00000000 00000000 00000000 00000000 00000000  ....................
000000D9AD2FAD48:   00000000 00000000 00000000 00000000 00000000  ....................
000000D9AD2FAD5C:   00000000 00000000 00000000 00000000 00000000  ....................
000000D9AD2FAD70:   00000000 00000000 00000000 00000000 00000000  ....................
000000D9AD2FAD84:   00000000 00000000 00000000 00000000 00000000  ....................
000000D9AD2FAD98:   00000000 00000000 00000000 00000000 00000000  ....................
000000D9AD2FADAC:   00000000 00000000 00000000 00000000 00000000  ....................
000000D9AD2FADC0:   00000000 00000000 00000000 00000000 00000000  ....................
000000D9AD2FADD4:   00000000 00000000 00000000 00000000 00000000  ....................
000000D9AD2FADE8:   00000000 00000000 00000000 00000000 00000000  ....................
000000D9AD2FADFC:   00000000 00000000 00000000 00000000 00000000  ....................
000000D9AD2FAE10:   00000000 00000000 00000000 00000000 00000000  ....................
000000D9AD2FAE24:   00000000 00000000 00000000 00000000 00000000  ....................
000000D9AD2FAE38:   00000000 00000000 00000000 00000000 00000000  ....................
000000D9AD2FAE4C:   00000000 00000000 00000000 00000000 00000000  ....................
000000D9AD2FAE60:   00000000 00000000 00000000 00000000 00000000  ....................
000000D9AD2FAE74:   00000000 00000000 00000000 00000000 00000000  ....................
000000D9AD2FAE88:   00000000 00000000 00000000 00000000 00000000  ....................
000000D9AD2FAE9C:   00000000 00000000 00000000 00000000 00000000  ....................
000000D9AD2FAEB0:   00000000 00000000 00000000 00000000 00000000  ....................
000000D9AD2FAEC4:   00000000 00000000 00000000 00000000 00000000  ....................
000000D9AD2FAED8:   00000000 00000000 00000000 00000000 00000000  ....................
000000D9AD2FAEEC:   00000000 00000000 00000000 00000000 00000000  ....................
000000D9AD2FAF00:   00000000 00000000 00000000 00000000 00000000  ....................
000000D9AD2FAF14:   00000000 00000000 00000000 00000000 00000000  ....................
000000D9AD2FAF28:   00000000 00000000 00000000 00000000 00000000  ....................
000000D9AD2FAF3C:   00000000 00000000 00000000 00000000 00000000  ....................
000000D9AD2FAF50:   00000000 00000000 00000000 00000000 00000000  ....................
000000D9AD2FAF64:   00000000 00000000 00000000 00000000 00000000  ....................
000000D9AD2FAF78:   00000000 00000000 00000000 00000000 00000000  ....................
000000D9AD2FAF8C:   00000000 00000000 00000000 00000000 00000000  ....................
000000D9AD2FAFA0:   00000000 00000000 00000000 00000000 00000000  ....................
000000D9AD2FAFB4:   00000000 00000000 00000000 00000000 00000000  ....................
000000D9AD2FAFC8:   00000000 00000000 00000000 00000000 00000000  ....................
000000D9AD2FAFDC:   00000000 00000000 00000000 00000000 00000000  ....................
000000D9AD2FAFF0:   00000000 00000000 00000000 00000000 00000000  ....................
000000D9AD2FB004:   00000000 00000000 00000000 00000000 00000000  ....................
000000D9AD2FB018:   00000000 00000000 00000000 00000000 00000000  ....................
000000D9AD2FB02C:   00000000 00000000 00000000 00000000 00000000  ....................
000000D9AD2FB040:   00000000 00000000 00000000 00000000 00000000  ....................
000000D9AD2FB054:   00000000 00000000 00000000 00000000 00000000  ....................
000000D9AD2FB068:   00000000 00000000 00000000 00000000 00000000  ....................
000000D9AD2FB07C:   00000000 00000000 00000000 00000000 00000000  ....................
000000D9AD2FB090:   00000000 00000000 00000000 00000000 00000000  ....................
000000D9AD2FB0A4:   00000000 00000000 00000000 00000000 00000000  ....................
000000D9AD2FB0B8:   00000000 00000000 00000000 00000000 00000000  ....................
000000D9AD2FB0CC:   00000000 00000000 00000000 00000000 00000000  ....................
000000D9AD2FB0E0:   00000000 00000000 00000000 00000000 00000000  ....................
000000D9AD2FB0F4:   00000000 00000000 00000000 00000000 00000000  ....................
000000D9AD2FB108:   00000000 00000000 00000000 00000000 00000000  ....................
000000D9AD2FB11C:   00000000 00000000 00000000 00000000 00000000  ....................
000000D9AD2FB130:   00000000 00000000 00000000 00000000 00000000  ....................
000000D9AD2FB144:   00000000 00000000 00000000 00000000 00000000  ....................
000000D9AD2FB158:   00000000 00000000 00000000 00000000 00000000  ....................
000000D9AD2FB16C:   00000000 00000000 00000000 00000000 00000000  ....................
000000D9AD2FB180:   00000000 00000000 00000000 00000000 00000000  ....................
000000D9AD2FB194:   00000000 00000000 00000000 00000000 00000000  ....................
000000D9AD2FB1A8:   00000000 00000000 00000000 00000000 00000000  ....................
000000D9AD2FB1BC:   00000000 00000000 00000000 00000000 00000000  ....................
000000D9AD2FB1D0:   00000000 00000000 00000000 00000000 00000000  ....................
000000D9AD2FB1E4:   00000000 00000000 00000000 00000000 00000000  ....................
000000D9AD2FB1F8:   00000000 00000000 00000000 00000000 00000000  ....................
000000D9AD2FB20C:   00000000 00000000 00000000 00000000 00000000  ....................
000000D9AD2FB220:   00000000 00000000 00000000 00000000 00000000  ....................
000000D9AD2FB234:   00000000 00000000 00000000 00000000 00000000  ....................
000000D9AD2FB248:   00000000 00000000 00000000 00000000 00000000  ....................
000000D9AD2FB25C:   00000000 00000000 00000000 00000000 00000000  ....................
000000D9AD2FB270:   00000000 00000000 00000000 00000000 00000000  ....................
000000D9AD2FB284:   00000000 00000000 00000000 00000000 00000000  ....................
000000D9AD2FB298:   00000000 00000000 00000000 00000000 00000000  ....................
000000D9AD2FB2AC:   00000000 00000000 00000000 00000000 00000000  ....................
000000D9AD2FB2C0:   00000000 00000000 00000000 00000000 00000000  ....................
000000D9AD2FB2D4:   00000000 00000000 00000000 00000000 00000000  ....................
000000D9AD2FB2E8:   00000000 00000000 00000000 00000000 00000000  ....................
000000D9AD2FB2FC:   00000000 00000000 00000000 00000000 00000000  ....................
000000D9AD2FB310:   00000000 00000000 00000000 00000000 00000000  ....................
000000D9AD2FB324:   00000000 00000000 00000000 00000000 00000000  ....................
000000D9AD2FB338:   00000000 00000000 00000000 00000000 00000000  ....................
000000D9AD2FB34C:   00000000 00000000 00000000 00000000 00000000  ....................
000000D9AD2FB360:   00000000 00000000 00000000 00000000 00000000  ....................
000000D9AD2FB374:   00000000 00000000 00000000 00000000 00000000  ....................
000000D9AD2FB388:   00000000 00000000 00000000 00000000 00000000  ....................
000000D9AD2FB39C:   00000000 00000000 00000000 00000000 00000000  ....................
000000D9AD2FB3B0:   00000000 00000000 00000000 00000000 00000000  ....................
000000D9AD2FB3C4:   00000000 00000000 00000000 00000000 00000000  ....................
000000D9AD2FB3D8:   00000000 00000000 00000000 00000000 00000000  ....................
000000D9AD2FB3EC:   00000000 00000000 00000000 00000000 00000000  ....................
000000D9AD2FB400:   00000000 00000000 00000000 00000000 00000000  ....................
000000D9AD2FB414:   00000000 00000000 00000000 00000000 00000000  ....................
000000D9AD2FB428:   00000000 00000000 00000000 00000000 00000000  ....................
000000D9AD2FB43C:   00000000 00000000 00000000 00000000 00000000  ....................
000000D9AD2FB450:   00000000 00000000 00000000 00000000 00000000  ....................
000000D9AD2FB464:   00000000 00000000 00000000 00000000 00000000  ....................
000000D9AD2FB478:   00000000 00000000 00000000 00000000 00000000  ....................
000000D9AD2FB48C:   00000000 00000000 00000000 00000000 00000000  ....................
000000D9AD2FB4A0:   00000000 00000000 00000000 00000000 00000000  ....................
000000D9AD2FB4B4:   00000000 00000000 00000000 00000000 00000000  ....................
000000D9AD2FB4C8:   00000000 00000000 00000000 00000000 00000000  ....................
000000D9AD2FB4DC:   00000000 00000000 00000000 00000000 00000000  ....................
000000D9AD2FB4F0:   00000000 00000000 00000000 00000000 00000000  ....................
000000D9AD2FB504:   00000000 00000000 00000000 00000000 00000000  ....................
000000D9AD2FB518:   00000000 00000000 00000000 00000000 00000000  ....................
000000D9AD2FB52C:   00000000 00000000 00000000 00000000 00000000  ....................
000000D9AD2FB540:   00000000 00000000 00000000 00000000 00000000  ....................
000000D9AD2FB554:   00000000 00000000 00000000 00000000 00000000  ....................
000000D9AD2FB568:   00000000 00000000 00000000 00000000 00000000  ....................
000000D9AD2FB57C:   00000000 00000000 00000000 00000000 00000000  ....................
000000D9AD2FB590:   00000000 00000000 00000000 00000000 00000000  ....................
000000D9AD2FB5A4:   00000000 00000000 00000000 00000000 00000000  ....................
000000D9AD2FB5B8:   00000000 00000000 00000000 00000000 00000000  ....................
000000D9AD2FB5CC:   00000000 00000000 00000000 00000000 00000000  ....................
000000D9AD2FB5E0:   00000000 00000000 00000000 00000000 00000000  ....................
000000D9AD2FB5F4:   00000000 00000000 00000000 00000000 00000000  ....................
000000D9AD2FB608:   00000000 00000000 00000000 00000000 00000000  ....................
000000D9AD2FB61C:   00000000 00000000 00000000 00000000 00000000  ....................
000000D9AD2FB630:   00000000 00000000 00000000 00000000 00000000  ....................
000000D9AD2FB644:   00000000 00000000 00000000 00000000 00000000  ....................
000000D9AD2FB658:   00000000 00000000 00000000 00000000 00000000  ....................
000000D9AD2FB66C:   00000000 00000000 00000000 00000000 00000000  ....................
000000D9AD2FB680:   00000000 00000000 00000000 00000000 00000000  ....................
000000D9AD2FB694:   00000000 00000000 00000000 00000000 00000000  ....................
000000D9AD2FB6A8:   00000000 00000000 00000000 00000000 00000000  ....................
000000D9AD2FB6BC:   00000000 00000000 00000000 00000000 00000000  ....................
000000D9AD2FB6D0:   00000000 00000000 00000000 00000000 00000000  ....................
000000D9AD2FB6E4:   00000000 00000000 00000000 00000000 00000000  ....................
000000D9AD2FB6F8:   00000000 00000000 00000000 00000000 00000000  ....................
000000D9AD2FB70C:   00000000 00000000 00000000 00000000 00000000  ....................
000000D9AD2FB720:   00000000 00000000 00000000 00000000 00000000  ....................
000000D9AD2FB734:   00000000 00000000 00000000 00000000 00000000  ....................
000000D9AD2FB748:   00000000 00000000 00000000 00000000 00000000  ....................
000000D9AD2FB75C:   00000000 00000000 00000000 00000000 00000000  ....................
000000D9AD2FB770:   00000000 00000000 00000000 00000000 00000000  ....................
000000D9AD2FB784:   00000000 00000000 00000000 00000000 00000000  ....................
000000D9AD2FB798:   00000000 00000000 00000000 00000000 00000000  ....................
000000D9AD2FB7AC:   00000000 00000000 00000000 00000000 00000000  ....................
000000D9AD2FB7C0:   00000000 00000000 00000000 00000000 00000000  ....................
000000D9AD2FB7D4:   00000000 00000000 00000000 00000000 00000000  ....................
000000D9AD2FB7E8:   00000000 00000000 00000000 00000000 00000000  ....................
000000D9AD2FB7FC:   00000000 00000000 00000000 00000000 00000000  ....................
000000D9AD2FB810:   00000000 00000000 00000000 00000000 00000000  ....................
000000D9AD2FB824:   00000000 00000000 00000000 00000000 00000000  ....................
000000D9AD2FB838:   00000000 00000000 00000000 00000000 00000000  ....................
000000D9AD2FB84C:   00000000 00000000 00000000 00000000 00000000  ....................
000000D9AD2FB860:   00000000 00000000 00000000 00000000 00000000  ....................
000000D9AD2FB874:   00000000 00000000 00000000 00000000 00000000  ....................
000000D9AD2FB888:   00000000 00000000 00000000 00000000 00000000  ....................
000000D9AD2FB89C:   00000000 00000000 00000000 00000000 00000000  ....................
000000D9AD2FB8B0:   00000000 00000000 00000000 00000000 00000000  ....................
000000D9AD2FB8C4:   00000000 00000000 00000000 00000000 00000000  ....................
000000D9AD2FB8D8:   00000000 00000000 00000000 00000000 00000000  ....................
000000D9AD2FB8EC:   00000000 00000000 00000000 00000000 00000000  ....................
000000D9AD2FB900:   00000000 00000000 00000000 00000000 00000000  ....................
000000D9AD2FB914:   00000000 00000000 00000000 00000000 00000000  ....................
000000D9AD2FB928:   00000000 00000000 00000000 00000000 00000000  ....................
000000D9AD2FB93C:   00000000 00000000 00000000 00000000 00000000  ....................
000000D9AD2FB950:   00000000 00000000 00000000 00000000 00000000  ....................
000000D9AD2FB964:   00000000 00000000 00000000 00000000 00000000  ....................
000000D9AD2FB978:   00000000 00000000 00000000 00000000 00000000  ....................
000000D9AD2FB98C:   00000000 00000000 00000000 00000000 00000000  ....................
000000D9AD2FB9A0:   00000000 00000000 00000000 00000000 00000000  ....................
000000D9AD2FB9B4:   00000000 00000000 00000000 00000000 00000000  ....................
000000D9AD2FB9C8:   00000000 00000000 00000000 00000000 00000000  ....................
000000D9AD2FB9DC:   00000000 00000000 00000000 00000000 00000000  ....................
000000D9AD2FB9F0:   00000000 00000000 00000000 00000000 00000000  ....................
000000D9AD2FBA04:   00000000 00000000 00000000 00000000 00000000  ....................
000000D9AD2FBA18:   00000000 00000000 00000000 00000000 00000000  ....................
000000D9AD2FBA2C:   00000000 00000000 00000000 00000000 00000000  ....................
000000D9AD2FBA40:   00000000 00000000 00000000 00000000 00000000  ....................
000000D9AD2FBA54:   00000000 00000000 00000000 00000000 00000000  ....................
000000D9AD2FBA68:   00000000 00000000 00000000 00000000 00000000  ....................
000000D9AD2FBA7C:   00000000 00000000 00000000 00000000 00000000  ....................
000000D9AD2FBA90:   00000000 00000000 00000000 00000000 00000000  ....................
000000D9AD2FBAA4:   00000000 00000000 00000000 00000000 00000000  ....................
000000D9AD2FBAB8:   00000000 00000000 00000000 00000000 00000000  ....................
000000D9AD2FBACC:   00000000 00000000 00000000 00000000 00000000  ....................
000000D9AD2FBAE0:   00000000 00000000 00000000 00000000 00000000  ....................
000000D9AD2FBAF4:   00000000 00000000 00000000 00000000 00000000  ....................
000000D9AD2FBB08:   00000000 00000000 00000000 00000000 00000000  ....................
000000D9AD2FBB1C:   00000000 00000000 00000000 00000000 00000000  ....................
000000D9AD2FBB30:   00000000 00000000 00000000 00000000 00000000  ....................
000000D9AD2FBB44:   00000000 00000000 00000000 00000000 00000000  ....................
000000D9AD2FBB58:   00000000 00000000 00000000 00000000 00000000  ....................
000000D9AD2FBB6C:   00000000 00000000 00000000 00000000 00000000  ....................
000000D9AD2FBB80:   00000000 00000000 00000000 00000000 00000000  ....................
000000D9AD2FBB94:   00000000 00000000 00000000 00000000 00000000  ....................
000000D9AD2FBBA8:   00000000 00000000 00000000 00000000 00000000  ....................
000000D9AD2FBBBC:   00000000 00000000 00000000 00000000 00000000  ....................
000000D9AD2FBBD0:   00000000 00000000 00000000 00000000 00000000  ....................
000000D9AD2FBBE4:   00000000 00000000 00000000 00000000 00000000  ....................
000000D9AD2FBBF8:   00000000 00000000 00000000 00000000 00000000  ....................
000000D9AD2FBC0C:   00000000 00000000 00000000 00000000 00000000  ....................
000000D9AD2FBC20:   00000000 00000000 00000000 00000000 00000000  ....................
000000D9AD2FBC34:   00000000 00000000 00000000 00000000 00000000  ....................
000000D9AD2FBC48:   00000000 00000000 00000000 00000000 00000000  ....................
000000D9AD2FBC5C:   00000000 00000000 00000000 00000000 00000000  ....................
000000D9AD2FBC70:   00000000 00000000 00000000 00000000 00000000  ....................
000000D9AD2FBC84:   00000000 00000000 00000000 00000000 00000000  ....................
000000D9AD2FBC98:   00000000 00000000 00000000 00000000 00000000  ....................
000000D9AD2FBCAC:   00000000 00000000 00000000 00000000 00000000  ....................
000000D9AD2FBCC0:   00000000 00000000 00000000 00000000 00000000  ....................
000000D9AD2FBCD4:   00000000 00000000 00000000 00000000 00000000  ....................
000000D9AD2FBCE8:   00000000 00000000 00000000 00000000 00000000  ....................
000000D9AD2FBCFC:   00000000 00000000 00000000 00000000 00000000  ....................
000000D9AD2FBD10:   00000000 00000000 00000000 00000000 00000000  ....................
000000D9AD2FBD24:   00000000 00000000 00000000 00000000 00000000  ....................
000000D9AD2FBD38:   00000000 00000000 00000000 00000000 00000000  ....................
000000D9AD2FBD4C:   00000000 00000000 00000000 00000000 00000000  ....................
000000D9AD2FBD60:   00000000 00000000 00000000 00000000 00000000  ....................
000000D9AD2FBD74:   00000000 00000000 00000000 00000000 00000000  ....................
000000D9AD2FBD88:   00000000 00000000 00000000 00000000 00000000  ....................
000000D9AD2FBD9C:   00000000 00000000 00000000 00000000 00000000  ....................
000000D9AD2FBDB0:   00000000 00000000 00000000 00000000 00000000  ....................
000000D9AD2FBDC4:   00000000 00000000 00000000 00000000 00000000  ....................
000000D9AD2FBDD8:   00000000 00000000 00000000 00000000 00000000  ....................
000000D9AD2FBDEC:   00000000 00000000 00000000 00000000 00000000  ....................
000000D9AD2FBE00:   00000000 00000000 00000000 00000000 00000000  ....................
000000D9AD2FBE14:   00000000 00000000 00000000 00000000 00000000  ....................
000000D9AD2FBE28:   00000000 00000000 00000000 00000000 00000000  ....................
000000D9AD2FBE3C:   00000000 00000000 00000000 00000000 00000000  ....................
000000D9AD2FBE50:   00000000 00000000 00000000 00000000 00000000  ....................
000000D9AD2FBE64:   00000000 00000000 00000000 00000000 00000000  ....................
000000D9AD2FBE78:   00000000 00000000 00000000 00000000 00000000  ....................
000000D9AD2FBE8C:   00000000 00000000 00000000 00000000 00000000  ....................
000000D9AD2FBEA0:   00000000 00000000 00000000 00000000 00000000  ....................
000000D9AD2FBEB4:   00000000 00000000 00000000 00000000 00000000  ....................
000000D9AD2FBEC8:   00000000 00000000 00000000 00000000 00000000  ....................
000000D9AD2FBEDC:   00000000 00000000 00000000 00000000 00000000  ....................
000000D9AD2FBEF0:   00000000 00000000 00000000 00000000 00000000  ....................
000000D9AD2FBF04:   00000000 00000000 00000000 00000000 00000000  ....................
000000D9AD2FBF18:   00000000 00000000 00000000 00000000 00000000  ....................
000000D9AD2FBF2C:   00000000 00000000 00000000 00000000 00000000  ....................
000000D9AD2FBF40:   00000000 00000000 00000000 00000000 00000000  ....................
000000D9AD2FBF54:   00000000 00000000 00000000 00000000 00000000  ....................
000000D9AD2FBF68:   00000000 00000000 00000000 00000000 00000000  ....................
000000D9AD2FBF7C:   00000000 00000000 00000000 00000000 00000000  ....................
000000D9AD2FBF90:   00000000 00000000 00000000 00000000 00000000  ....................
000000D9AD2FBFA4:   00000000 00000000 00000000 00000000 00000000  ....................
000000D9AD2FBFB8:   00000000 00000000 00000000 00000000 00000000  ....................
000000D9AD2FBFCC:   00000000 00000000 00000000 00000000 00000000  ....................
000000D9AD2FBFE0:   00000000 00000000 00000000 00000000 00000000  ....................
000000D9AD2FBFF4:   00000000 00000000 00006000                    ..........`.


DBCC execution completed. If DBCC printed error messages, contact your system administrator.
